{"contracts/Gar3.sol":{"Gar3":{"abi":[{"inputs":[],"stateMutability":"nonpayable","type":"constructor"},{"inputs":[],"name":"LIFE_CHANGE_AMOUNT","outputs":[{"internalType":"uint256","name":"","type":"uint256"}],"stateMutability":"view","type":"function"},{"inputs":[],"name":"LIFE_INCREASE_TIME","outputs":[{"internalType":"uint256","name":"","type":"uint256"}],"stateMutability":"view","type":"function"},{"inputs":[],"name":"LIFE_START_AMOUNT","outputs":[{"internalType":"uint256","name":"","type":"uint256"}],"stateMutability":"view","type":"function"},{"inputs":[],"name":"MAX_PLAYERS","outputs":[{"internalType":"uint256","name":"","type":"uint256"}],"stateMutability":"view","type":"function"},{"inputs":[],"name":"MAX_TIME_MINUTES","outputs":[{"internalType":"uint256","name":"","type":"uint256"}],"stateMutability":"view","type":"function"},{"inputs":[{"internalType":"uint256","name":"","type":"uint256"}],"name":"games","outputs":[{"internalType":"enum Gar3.GameStatus","name":"status","type":"uint8"},{"components":[{"internalType":"uint256","name":"width","type":"uint256"},{"internalType":"uint256","name":"height","type":"uint256"}],"internalType":"struct Gar3.PlayingGrid","name":"grid","type":"tuple"}],"stateMutability":"view","type":"function"},{"inputs":[],"name":"gamesCount","outputs":[{"internalType":"uint256","name":"","type":"uint256"}],"stateMutability":"view","type":"function"},{"inputs":[{"internalType":"uint256","name":"gameId","type":"uint256"}],"name":"getPlayers","outputs":[{"components":[{"internalType":"address payable","name":"player","type":"address"},{"internalType":"uint256","name":"id","type":"uint256"},{"internalType":"uint256","name":"life","type":"uint256"},{"components":[{"internalType":"uint256","name":"width","type":"uint256"},{"internalType":"uint256","name":"height","type":"uint256"}],"internalType":"struct Gar3.Position","name":"position","type":"tuple"},{"internalType":"uint256","name":"lastMoveTimestamp","type":"uint256"}],"internalType":"struct Gar3.Players[3]","name":"","type":"tuple[3]"}],"stateMutability":"view","type":"function"},{"inputs":[{"internalType":"uint256","name":"gameId","type":"uint256"},{"internalType":"uint256","name":"direction_width","type":"uint256"},{"internalType":"uint256","name":"direction_height","type":"uint256"}],"name":"movePlayer","outputs":[],"stateMutability":"nonpayable","type":"function"},{"inputs":[{"internalType":"uint256","name":"gameId","type":"uint256"}],"name":"nextPlayerId","outputs":[{"internalType":"uint256","name":"","type":"uint256"}],"stateMutability":"view","type":"function"},{"inputs":[],"name":"startGame","outputs":[{"internalType":"uint256","name":"","type":"uint256"}],"stateMutability":"payable","type":"function"},{"inputs":[{"internalType":"uint256","name":"","type":"uint256"}],"name":"startingPositions","outputs":[{"internalType":"uint256","name":"width","type":"uint256"},{"internalType":"uint256","name":"height","type":"uint256"}],"stateMutability":"view","type":"function"}],"evm":{"bytecode":{"linkReferences":{},"object":"60806040523480156200001157600080fd5b506040518060400160405280600260a06200002d9190620001db565b81526020016004605a620000429190620001db565b815250600080600381106200005c576200005b62000213565b5b6002020160008201518160000155602082015181600101559050506040518060400160405280600460a0620000929190620001db565b815260200160036004605a620000a99190620001db565b620000b5919062000242565b8152506000600160038110620000d057620000cf62000213565b5b60020201600082015181600001556020820151816001015590505060405180604001604052806003600460a0620001089190620001db565b62000114919062000242565b815260200160036004605a6200012b9190620001db565b62000137919062000242565b815250600060026003811062000152576200015162000213565b5b6002020160008201518160000155602082015181600101559050506200028d565b6000819050919050565b7f4e487b7100000000000000000000000000000000000000000000000000000000600052601260045260246000fd5b7f4e487b7100000000000000000000000000000000000000000000000000000000600052601160045260246000fd5b6000620001e88262000173565b9150620001f58362000173565b9250826200020857620002076200017d565b5b828204905092915050565b7f4e487b7100000000000000000000000000000000000000000000000000000000600052603260045260246000fd5b60006200024f8262000173565b91506200025c8362000173565b92508282026200026c8162000173565b91508282048414831517620002865762000285620001ac565b5b5092915050565b611471806200029d6000396000f3fe6080604052600436106100a75760003560e01c8063460e204911610064578063460e2049146101bf578063b4c5bf64146101fc578063d65ab5f21461023a578063d8929b9c14610258578063eec8089a14610295578063fb632b7c146102c0576100a7565b80630413bdb7146100ac5780630bbb5714146100d7578063117a5b90146101005780632dd361881461013e57806330aeb405146101695780634411b3eb14610194575b600080fd5b3480156100b857600080fd5b506100c16102eb565b6040516100ce9190610e9f565b60405180910390f35b3480156100e357600080fd5b506100fe60048036038101906100f99190610eeb565b6102f0565b005b34801561010c57600080fd5b5061012760048036038101906101229190610f3e565b610906565b604051610135929190611020565b60405180910390f35b34801561014a57600080fd5b50610153610955565b6040516101609190610e9f565b60405180910390f35b34801561017557600080fd5b5061017e61095a565b60405161018b9190610e9f565b60405180910390f35b3480156101a057600080fd5b506101a961095f565b6040516101b69190610e9f565b60405180910390f35b3480156101cb57600080fd5b506101e660048036038101906101e19190610f3e565b610964565b6040516101f391906111bd565b60405180910390f35b34801561020857600080fd5b50610223600480360381019061021e9190610f3e565b610a68565b6040516102319291906111d9565b60405180910390f35b610242610a92565b60405161024f9190610e9f565b60405180910390f35b34801561026457600080fd5b5061027f600480360381019061027a9190610f3e565b610d26565b60405161028c9190610e9f565b60405180910390f35b3480156102a157600080fd5b506102aa610de8565b6040516102b79190610e9f565b60405180910390f35b3480156102cc57600080fd5b506102d5610dee565b6040516102e29190610e9f565b60405180910390f35b601e81565b600060066000858152602001908152602001600020905060028081111561031a57610319610f6b565b5b8160000160009054906101000a900460ff16600281111561033e5761033d610f6b565b5b1461037e576040517f08c379a00000000000000000000000000000000000000000000000000000000081526004016103759061125f565b60405180910390fd5b6000805b6003811015610416573373ffffffffffffffffffffffffffffffffffffffff168360010182600381106103b8576103b761127f565b5b6006020160000160009054906101000a900473ffffffffffffffffffffffffffffffffffffffff1673ffffffffffffffffffffffffffffffffffffffff160361040357809150610416565b808061040e906112dd565b915050610382565b50600082600101826003811061042f5761042e61127f565b5b60060201905084816003016000018190555083816003016001018190555042816005018190555060005b60038110156105ec57828103156105d95760008460010182600381106104825761048161127f565b5b6006020190508060020154816003016000015461049f9190611325565b8360030160000154101580156104d25750806002015481600301600001546104c79190611359565b836003016000015411155b80156104fb5750806002015481600301600101546104f09190611325565b836003016001015410155b80156105245750806002015481600301600101546105199190611359565b836003016001015411155b156105d757600a816002015461053a9190611325565b8160020181905550600a83600201546105539190611359565b836002018190555060008160020154036105d657600085600101836003811061057f5761057e61127f565b5b600602016002018190555060405180604001604052806000815260200160008152508560010183600381106105b7576105b661127f565b5b6006020160030160008201518160000155602082015181600101559050505b5b505b80806105e4906112dd565b915050610459565b5060008060005b60038110156106475760008660010182600381106106145761061361127f565b5b6006020160020154111561063457828061062d906112dd565b9350508091505b808061063f906112dd565b9150506105f3565b50600182036107025760008560000160006101000a81548160ff0219169083600281111561067857610677610f6b565b5b02179055508460010181600381106106935761069261127f565b5b6006020160000160009054906101000a900473ffffffffffffffffffffffffffffffffffffffff1673ffffffffffffffffffffffffffffffffffffffff166108fc479081150290604051600060405180830381858888f19350505050158015610700573d6000803e3d6000fd5b505b603c85600101856003811061071a5761071961127f565b5b60060201600501544261072d9190611325565b1061079e5760005b600381101561079c57600a8660010182600381106107565761075561127f565b5b60060201600201546107689190611359565b86600101826003811061077e5761077d61127f565b5b60060201600201819055508080610794906112dd565b915050610735565b505b6102588560010185600381106107b7576107b661127f565b5b6006020160050154426107ca9190611325565b106108fc5760008560000160006101000a81548160ff021916908360028111156107f7576107f6610f6b565b5b021790555060008060005b600381101561086757828860010182600381106108225761082161127f565b5b60060201600201541115610854578760010181600381106108465761084561127f565b5b600602016002015492508091505b808061085f906112dd565b915050610802565b5086600101816003811061087e5761087d61127f565b5b6006020160000160009054906101000a900473ffffffffffffffffffffffffffffffffffffffff1673ffffffffffffffffffffffffffffffffffffffff166108fc6003601a6108cd919061138d565b9081150290604051600060405180830381858888f193505050501580156108f8573d6000803e3d6000fd5b5050505b5050505050505050565b60066020528060005260406000206000915090508060000160009054906101000a900460ff16908060130160405180604001604052908160008201548152602001600182015481525050905082565b603c81565b600a81565b600381565b61096c610df4565b60066000838152602001908152602001600020600101600380602002604051908101604052809291906000905b82821015610a5d578382600602016040518060a00160405290816000820160009054906101000a900473ffffffffffffffffffffffffffffffffffffffff1673ffffffffffffffffffffffffffffffffffffffff1673ffffffffffffffffffffffffffffffffffffffff16815260200160018201548152602001600282015481526020016003820160405180604001604052908160008201548152602001600182015481525050815260200160058201548152505081526020019060010190610999565b505050509050919050565b60008160038110610a7857600080fd5b600202016000915090508060000154908060010154905082565b6000601a341015610ad8576040517f08c379a0000000000000000000000000000000000000000000000000000000008152600401610acf9061141b565b60405180910390fd5b6000610ae5600754610d26565b905060038103610b935760076000815480929190610b02906112dd565b9190505550600160066000600754815260200190815260200160002060000160006101000a81548160ff02191690836002811115610b4357610b42610f6b565b5b0217905550604051806040016040528060a08152602001605a8152506006600060075481526020019081526020016000206013016000820151816000015560208201518160010155905050600090505b6040518060a001604052803373ffffffffffffffffffffffffffffffffffffffff168152602001828152602001601e815260200160008360038110610bdb57610bda61127f565b5b60020201604051806040016040529081600082015481526020016001820154815250508152602001428152506006600060075481526020019081526020016000206001018260038110610c3157610c3061127f565b5b6006020160008201518160000160006101000a81548173ffffffffffffffffffffffffffffffffffffffff021916908373ffffffffffffffffffffffffffffffffffffffff16021790555060208201518160010155604082015181600201556060820151816003016000820151816000015560208201518160010155505060808201518160050155905050600360066000600754815260200190815260200160002050600303610d1d57600260066000600754815260200190815260200160002060000160006101000a81548160ff02191690836002811115610d1757610d16610f6b565b5b02179055505b60075491505090565b6000806000905060005b6003811015610dde57600073ffffffffffffffffffffffffffffffffffffffff16600660008681526020019081526020016000206001018260038110610d7957610d7861127f565b5b6006020160000160009054906101000a900473ffffffffffffffffffffffffffffffffffffffff1673ffffffffffffffffffffffffffffffffffffffff1614610dcb578180610dc7906112dd565b9250505b8080610dd6906112dd565b915050610d30565b5080915050919050565b61025881565b60075481565b60405180606001604052806003905b610e0b610e21565b815260200190600190039081610e035790505090565b6040518060a00160405280600073ffffffffffffffffffffffffffffffffffffffff1681526020016000815260200160008152602001610e5f610e6c565b8152602001600081525090565b604051806040016040528060008152602001600081525090565b6000819050919050565b610e9981610e86565b82525050565b6000602082019050610eb46000830184610e90565b92915050565b600080fd5b610ec881610e86565b8114610ed357600080fd5b50565b600081359050610ee581610ebf565b92915050565b600080600060608486031215610f0457610f03610eba565b5b6000610f1286828701610ed6565b9350506020610f2386828701610ed6565b9250506040610f3486828701610ed6565b9150509250925092565b600060208284031215610f5457610f53610eba565b5b6000610f6284828501610ed6565b91505092915050565b7f4e487b7100000000000000000000000000000000000000000000000000000000600052602160045260246000fd5b60038110610fab57610faa610f6b565b5b50565b6000819050610fbc82610f9a565b919050565b6000610fcc82610fae565b9050919050565b610fdc81610fc1565b82525050565b610feb81610e86565b82525050565b6040820160008201516110076000850182610fe2565b50602082015161101a6020850182610fe2565b50505050565b60006060820190506110356000830185610fd3565b6110426020830184610ff1565b9392505050565b600060039050919050565b600081905092915050565b6000819050919050565b600073ffffffffffffffffffffffffffffffffffffffff82169050919050565b600061109482611069565b9050919050565b6110a481611089565b82525050565b6040820160008201516110c06000850182610fe2565b5060208201516110d36020850182610fe2565b50505050565b60c0820160008201516110ef600085018261109b565b5060208201516111026020850182610fe2565b5060408201516111156040850182610fe2565b50606082015161112860608501826110aa565b50608082015161113b60a0850182610fe2565b50505050565b600061114d83836110d9565b60c08301905092915050565b6000602082019050919050565b61116f81611049565b6111798184611054565b92506111848261105f565b8060005b838110156111b557815161119c8782611141565b96506111a783611159565b925050600181019050611188565b505050505050565b6000610240820190506111d36000830184611166565b92915050565b60006040820190506111ee6000830185610e90565b6111fb6020830184610e90565b9392505050565b600082825260208201905092915050565b7f47616d65206973206e6f74206163746976650000000000000000000000000000600082015250565b6000611249601283611202565b915061125482611213565b602082019050919050565b600060208201905081810360008301526112788161123c565b9050919050565b7f4e487b7100000000000000000000000000000000000000000000000000000000600052603260045260246000fd5b7f4e487b7100000000000000000000000000000000000000000000000000000000600052601160045260246000fd5b60006112e882610e86565b91507fffffffffffffffffffffffffffffffffffffffffffffffffffffffffffffffff820361131a576113196112ae565b5b600182019050919050565b600061133082610e86565b915061133b83610e86565b9250828203905081811115611353576113526112ae565b5b92915050565b600061136482610e86565b915061136f83610e86565b9250828201905080821115611387576113866112ae565b5b92915050565b600061139882610e86565b91506113a383610e86565b92508282026113b181610e86565b915082820484148315176113c8576113c76112ae565b5b5092915050565b7f76616c75652073656e74206e6f7420656e6f7567680000000000000000000000600082015250565b6000611405601583611202565b9150611410826113cf565b602082019050919050565b60006020820190508181036000830152611434816113f8565b905091905056fea2646970667358221220daf34474e5b961ba28c287048e58cdfb72476163c68aaaef1eba098bc92002d864736f6c63430008110033","opcodes":"PUSH1 0x80 PUSH1 0x40 MSTORE CALLVALUE DUP1 ISZERO PUSH3 0x11 JUMPI PUSH1 0x0 DUP1 REVERT JUMPDEST POP PUSH1 0x40 MLOAD DUP1 PUSH1 0x40 ADD PUSH1 0x40 MSTORE DUP1 PUSH1 0x2 PUSH1 0xA0 PUSH3 0x2D SWAP2 SWAP1 PUSH3 0x1DB JUMP JUMPDEST DUP2 MSTORE PUSH1 0x20 ADD PUSH1 0x4 PUSH1 0x5A PUSH3 0x42 SWAP2 SWAP1 PUSH3 0x1DB JUMP JUMPDEST DUP2 MSTORE POP PUSH1 0x0 DUP1 PUSH1 0x3 DUP2 LT PUSH3 0x5C JUMPI PUSH3 0x5B PUSH3 0x213 JUMP JUMPDEST JUMPDEST PUSH1 0x2 MUL ADD PUSH1 0x0 DUP3 ADD MLOAD DUP2 PUSH1 0x0 ADD SSTORE PUSH1 0x20 DUP3 ADD MLOAD DUP2 PUSH1 0x1 ADD SSTORE SWAP1 POP POP PUSH1 0x40 MLOAD DUP1 PUSH1 0x40 ADD PUSH1 0x40 MSTORE DUP1 PUSH1 0x4 PUSH1 0xA0 PUSH3 0x92 SWAP2 SWAP1 PUSH3 0x1DB JUMP JUMPDEST DUP2 MSTORE PUSH1 0x20 ADD PUSH1 0x3 PUSH1 0x4 PUSH1 0x5A PUSH3 0xA9 SWAP2 SWAP1 PUSH3 0x1DB JUMP JUMPDEST PUSH3 0xB5 SWAP2 SWAP1 PUSH3 0x242 JUMP JUMPDEST DUP2 MSTORE POP PUSH1 0x0 PUSH1 0x1 PUSH1 0x3 DUP2 LT PUSH3 0xD0 JUMPI PUSH3 0xCF PUSH3 0x213 JUMP JUMPDEST JUMPDEST PUSH1 0x2 MUL ADD PUSH1 0x0 DUP3 ADD MLOAD DUP2 PUSH1 0x0 ADD SSTORE PUSH1 0x20 DUP3 ADD MLOAD DUP2 PUSH1 0x1 ADD SSTORE SWAP1 POP POP PUSH1 0x40 MLOAD DUP1 PUSH1 0x40 ADD PUSH1 0x40 MSTORE DUP1 PUSH1 0x3 PUSH1 0x4 PUSH1 0xA0 PUSH3 0x108 SWAP2 SWAP1 PUSH3 0x1DB JUMP JUMPDEST PUSH3 0x114 SWAP2 SWAP1 PUSH3 0x242 JUMP JUMPDEST DUP2 MSTORE PUSH1 0x20 ADD PUSH1 0x3 PUSH1 0x4 PUSH1 0x5A PUSH3 0x12B SWAP2 SWAP1 PUSH3 0x1DB JUMP JUMPDEST PUSH3 0x137 SWAP2 SWAP1 PUSH3 0x242 JUMP JUMPDEST DUP2 MSTORE POP PUSH1 0x0 PUSH1 0x2 PUSH1 0x3 DUP2 LT PUSH3 0x152 JUMPI PUSH3 0x151 PUSH3 0x213 JUMP JUMPDEST JUMPDEST PUSH1 0x2 MUL ADD PUSH1 0x0 DUP3 ADD MLOAD DUP2 PUSH1 0x0 ADD SSTORE PUSH1 0x20 DUP3 ADD MLOAD DUP2 PUSH1 0x1 ADD SSTORE SWAP1 POP POP PUSH3 0x28D JUMP JUMPDEST PUSH1 0x0 DUP2 SWAP1 POP SWAP2 SWAP1 POP JUMP JUMPDEST PUSH32 0x4E487B7100000000000000000000000000000000000000000000000000000000 PUSH1 0x0 MSTORE PUSH1 0x12 PUSH1 0x4 MSTORE PUSH1 0x24 PUSH1 0x0 REVERT JUMPDEST PUSH32 0x4E487B7100000000000000000000000000000000000000000000000000000000 PUSH1 0x0 MSTORE PUSH1 0x11 PUSH1 0x4 MSTORE PUSH1 0x24 PUSH1 0x0 REVERT JUMPDEST PUSH1 0x0 PUSH3 0x1E8 DUP3 PUSH3 0x173 JUMP JUMPDEST SWAP2 POP PUSH3 0x1F5 DUP4 PUSH3 0x173 JUMP JUMPDEST SWAP3 POP DUP3 PUSH3 0x208 JUMPI PUSH3 0x207 PUSH3 0x17D JUMP JUMPDEST JUMPDEST DUP3 DUP3 DIV SWAP1 POP SWAP3 SWAP2 POP POP JUMP JUMPDEST PUSH32 0x4E487B7100000000000000000000000000000000000000000000000000000000 PUSH1 0x0 MSTORE PUSH1 0x32 PUSH1 0x4 MSTORE PUSH1 0x24 PUSH1 0x0 REVERT JUMPDEST PUSH1 0x0 PUSH3 0x24F DUP3 PUSH3 0x173 JUMP JUMPDEST SWAP2 POP PUSH3 0x25C DUP4 PUSH3 0x173 JUMP JUMPDEST SWAP3 POP DUP3 DUP3 MUL PUSH3 0x26C DUP2 PUSH3 0x173 JUMP JUMPDEST SWAP2 POP DUP3 DUP3 DIV DUP5 EQ DUP4 ISZERO OR PUSH3 0x286 JUMPI PUSH3 0x285 PUSH3 0x1AC JUMP JUMPDEST JUMPDEST POP SWAP3 SWAP2 POP POP JUMP JUMPDEST PUSH2 0x1471 DUP1 PUSH3 0x29D PUSH1 0x0 CODECOPY PUSH1 0x0 RETURN INVALID PUSH1 0x80 PUSH1 0x40 MSTORE PUSH1 0x4 CALLDATASIZE LT PUSH2 0xA7 JUMPI PUSH1 0x0 CALLDATALOAD PUSH1 0xE0 SHR DUP1 PUSH4 0x460E2049 GT PUSH2 0x64 JUMPI DUP1 PUSH4 0x460E2049 EQ PUSH2 0x1BF JUMPI DUP1 PUSH4 0xB4C5BF64 EQ PUSH2 0x1FC JUMPI DUP1 PUSH4 0xD65AB5F2 EQ PUSH2 0x23A JUMPI DUP1 PUSH4 0xD8929B9C EQ PUSH2 0x258 JUMPI DUP1 PUSH4 0xEEC8089A EQ PUSH2 0x295 JUMPI DUP1 PUSH4 0xFB632B7C EQ PUSH2 0x2C0 JUMPI PUSH2 0xA7 JUMP JUMPDEST DUP1 PUSH4 0x413BDB7 EQ PUSH2 0xAC JUMPI DUP1 PUSH4 0xBBB5714 EQ PUSH2 0xD7 JUMPI DUP1 PUSH4 0x117A5B90 EQ PUSH2 0x100 JUMPI DUP1 PUSH4 0x2DD36188 EQ PUSH2 0x13E JUMPI DUP1 PUSH4 0x30AEB405 EQ PUSH2 0x169 JUMPI DUP1 PUSH4 0x4411B3EB EQ PUSH2 0x194 JUMPI JUMPDEST PUSH1 0x0 DUP1 REVERT JUMPDEST CALLVALUE DUP1 ISZERO PUSH2 0xB8 JUMPI PUSH1 0x0 DUP1 REVERT JUMPDEST POP PUSH2 0xC1 PUSH2 0x2EB JUMP JUMPDEST PUSH1 0x40 MLOAD PUSH2 0xCE SWAP2 SWAP1 PUSH2 0xE9F JUMP JUMPDEST PUSH1 0x40 MLOAD DUP1 SWAP2 SUB SWAP1 RETURN JUMPDEST CALLVALUE DUP1 ISZERO PUSH2 0xE3 JUMPI PUSH1 0x0 DUP1 REVERT JUMPDEST POP PUSH2 0xFE PUSH1 0x4 DUP1 CALLDATASIZE SUB DUP2 ADD SWAP1 PUSH2 0xF9 SWAP2 SWAP1 PUSH2 0xEEB JUMP JUMPDEST PUSH2 0x2F0 JUMP JUMPDEST STOP JUMPDEST CALLVALUE DUP1 ISZERO PUSH2 0x10C JUMPI PUSH1 0x0 DUP1 REVERT JUMPDEST POP PUSH2 0x127 PUSH1 0x4 DUP1 CALLDATASIZE SUB DUP2 ADD SWAP1 PUSH2 0x122 SWAP2 SWAP1 PUSH2 0xF3E JUMP JUMPDEST PUSH2 0x906 JUMP JUMPDEST PUSH1 0x40 MLOAD PUSH2 0x135 SWAP3 SWAP2 SWAP1 PUSH2 0x1020 JUMP JUMPDEST PUSH1 0x40 MLOAD DUP1 SWAP2 SUB SWAP1 RETURN JUMPDEST CALLVALUE DUP1 ISZERO PUSH2 0x14A JUMPI PUSH1 0x0 DUP1 REVERT JUMPDEST POP PUSH2 0x153 PUSH2 0x955 JUMP JUMPDEST PUSH1 0x40 MLOAD PUSH2 0x160 SWAP2 SWAP1 PUSH2 0xE9F JUMP JUMPDEST PUSH1 0x40 MLOAD DUP1 SWAP2 SUB SWAP1 RETURN JUMPDEST CALLVALUE DUP1 ISZERO PUSH2 0x175 JUMPI PUSH1 0x0 DUP1 REVERT JUMPDEST POP PUSH2 0x17E PUSH2 0x95A JUMP JUMPDEST PUSH1 0x40 MLOAD PUSH2 0x18B SWAP2 SWAP1 PUSH2 0xE9F JUMP JUMPDEST PUSH1 0x40 MLOAD DUP1 SWAP2 SUB SWAP1 RETURN JUMPDEST CALLVALUE DUP1 ISZERO PUSH2 0x1A0 JUMPI PUSH1 0x0 DUP1 REVERT JUMPDEST POP PUSH2 0x1A9 PUSH2 0x95F JUMP JUMPDEST PUSH1 0x40 MLOAD PUSH2 0x1B6 SWAP2 SWAP1 PUSH2 0xE9F JUMP JUMPDEST PUSH1 0x40 MLOAD DUP1 SWAP2 SUB SWAP1 RETURN JUMPDEST CALLVALUE DUP1 ISZERO PUSH2 0x1CB JUMPI PUSH1 0x0 DUP1 REVERT JUMPDEST POP PUSH2 0x1E6 PUSH1 0x4 DUP1 CALLDATASIZE SUB DUP2 ADD SWAP1 PUSH2 0x1E1 SWAP2 SWAP1 PUSH2 0xF3E JUMP JUMPDEST PUSH2 0x964 JUMP JUMPDEST PUSH1 0x40 MLOAD PUSH2 0x1F3 SWAP2 SWAP1 PUSH2 0x11BD JUMP JUMPDEST PUSH1 0x40 MLOAD DUP1 SWAP2 SUB SWAP1 RETURN JUMPDEST CALLVALUE DUP1 ISZERO PUSH2 0x208 JUMPI PUSH1 0x0 DUP1 REVERT JUMPDEST POP PUSH2 0x223 PUSH1 0x4 DUP1 CALLDATASIZE SUB DUP2 ADD SWAP1 PUSH2 0x21E SWAP2 SWAP1 PUSH2 0xF3E JUMP JUMPDEST PUSH2 0xA68 JUMP JUMPDEST PUSH1 0x40 MLOAD PUSH2 0x231 SWAP3 SWAP2 SWAP1 PUSH2 0x11D9 JUMP JUMPDEST PUSH1 0x40 MLOAD DUP1 SWAP2 SUB SWAP1 RETURN JUMPDEST PUSH2 0x242 PUSH2 0xA92 JUMP JUMPDEST PUSH1 0x40 MLOAD PUSH2 0x24F SWAP2 SWAP1 PUSH2 0xE9F JUMP JUMPDEST PUSH1 0x40 MLOAD DUP1 SWAP2 SUB SWAP1 RETURN JUMPDEST CALLVALUE DUP1 ISZERO PUSH2 0x264 JUMPI PUSH1 0x0 DUP1 REVERT JUMPDEST POP PUSH2 0x27F PUSH1 0x4 DUP1 CALLDATASIZE SUB DUP2 ADD SWAP1 PUSH2 0x27A SWAP2 SWAP1 PUSH2 0xF3E JUMP JUMPDEST PUSH2 0xD26 JUMP JUMPDEST PUSH1 0x40 MLOAD PUSH2 0x28C SWAP2 SWAP1 PUSH2 0xE9F JUMP JUMPDEST PUSH1 0x40 MLOAD DUP1 SWAP2 SUB SWAP1 RETURN JUMPDEST CALLVALUE DUP1 ISZERO PUSH2 0x2A1 JUMPI PUSH1 0x0 DUP1 REVERT JUMPDEST POP PUSH2 0x2AA PUSH2 0xDE8 JUMP JUMPDEST PUSH1 0x40 MLOAD PUSH2 0x2B7 SWAP2 SWAP1 PUSH2 0xE9F JUMP JUMPDEST PUSH1 0x40 MLOAD DUP1 SWAP2 SUB SWAP1 RETURN JUMPDEST CALLVALUE DUP1 ISZERO PUSH2 0x2CC JUMPI PUSH1 0x0 DUP1 REVERT JUMPDEST POP PUSH2 0x2D5 PUSH2 0xDEE JUMP JUMPDEST PUSH1 0x40 MLOAD PUSH2 0x2E2 SWAP2 SWAP1 PUSH2 0xE9F JUMP JUMPDEST PUSH1 0x40 MLOAD DUP1 SWAP2 SUB SWAP1 RETURN JUMPDEST PUSH1 0x1E DUP2 JUMP JUMPDEST PUSH1 0x0 PUSH1 0x6 PUSH1 0x0 DUP6 DUP2 MSTORE PUSH1 0x20 ADD SWAP1 DUP2 MSTORE PUSH1 0x20 ADD PUSH1 0x0 KECCAK256 SWAP1 POP PUSH1 0x2 DUP1 DUP2 GT ISZERO PUSH2 0x31A JUMPI PUSH2 0x319 PUSH2 0xF6B JUMP JUMPDEST JUMPDEST DUP2 PUSH1 0x0 ADD PUSH1 0x0 SWAP1 SLOAD SWAP1 PUSH2 0x100 EXP SWAP1 DIV PUSH1 0xFF AND PUSH1 0x2 DUP2 GT ISZERO PUSH2 0x33E JUMPI PUSH2 0x33D PUSH2 0xF6B JUMP JUMPDEST JUMPDEST EQ PUSH2 0x37E JUMPI PUSH1 0x40 MLOAD PUSH32 0x8C379A000000000000000000000000000000000000000000000000000000000 DUP2 MSTORE PUSH1 0x4 ADD PUSH2 0x375 SWAP1 PUSH2 0x125F JUMP JUMPDEST PUSH1 0x40 MLOAD DUP1 SWAP2 SUB SWAP1 REVERT JUMPDEST PUSH1 0x0 DUP1 JUMPDEST PUSH1 0x3 DUP2 LT ISZERO PUSH2 0x416 JUMPI CALLER PUSH20 0xFFFFFFFFFFFFFFFFFFFFFFFFFFFFFFFFFFFFFFFF AND DUP4 PUSH1 0x1 ADD DUP3 PUSH1 0x3 DUP2 LT PUSH2 0x3B8 JUMPI PUSH2 0x3B7 PUSH2 0x127F JUMP JUMPDEST JUMPDEST PUSH1 0x6 MUL ADD PUSH1 0x0 ADD PUSH1 0x0 SWAP1 SLOAD SWAP1 PUSH2 0x100 EXP SWAP1 DIV PUSH20 0xFFFFFFFFFFFFFFFFFFFFFFFFFFFFFFFFFFFFFFFF AND PUSH20 0xFFFFFFFFFFFFFFFFFFFFFFFFFFFFFFFFFFFFFFFF AND SUB PUSH2 0x403 JUMPI DUP1 SWAP2 POP PUSH2 0x416 JUMP JUMPDEST DUP1 DUP1 PUSH2 0x40E SWAP1 PUSH2 0x12DD JUMP JUMPDEST SWAP2 POP POP PUSH2 0x382 JUMP JUMPDEST POP PUSH1 0x0 DUP3 PUSH1 0x1 ADD DUP3 PUSH1 0x3 DUP2 LT PUSH2 0x42F JUMPI PUSH2 0x42E PUSH2 0x127F JUMP JUMPDEST JUMPDEST PUSH1 0x6 MUL ADD SWAP1 POP DUP5 DUP2 PUSH1 0x3 ADD PUSH1 0x0 ADD DUP2 SWAP1 SSTORE POP DUP4 DUP2 PUSH1 0x3 ADD PUSH1 0x1 ADD DUP2 SWAP1 SSTORE POP TIMESTAMP DUP2 PUSH1 0x5 ADD DUP2 SWAP1 SSTORE POP PUSH1 0x0 JUMPDEST PUSH1 0x3 DUP2 LT ISZERO PUSH2 0x5EC JUMPI DUP3 DUP2 SUB ISZERO PUSH2 0x5D9 JUMPI PUSH1 0x0 DUP5 PUSH1 0x1 ADD DUP3 PUSH1 0x3 DUP2 LT PUSH2 0x482 JUMPI PUSH2 0x481 PUSH2 0x127F JUMP JUMPDEST JUMPDEST PUSH1 0x6 MUL ADD SWAP1 POP DUP1 PUSH1 0x2 ADD SLOAD DUP2 PUSH1 0x3 ADD PUSH1 0x0 ADD SLOAD PUSH2 0x49F SWAP2 SWAP1 PUSH2 0x1325 JUMP JUMPDEST DUP4 PUSH1 0x3 ADD PUSH1 0x0 ADD SLOAD LT ISZERO DUP1 ISZERO PUSH2 0x4D2 JUMPI POP DUP1 PUSH1 0x2 ADD SLOAD DUP2 PUSH1 0x3 ADD PUSH1 0x0 ADD SLOAD PUSH2 0x4C7 SWAP2 SWAP1 PUSH2 0x1359 JUMP JUMPDEST DUP4 PUSH1 0x3 ADD PUSH1 0x0 ADD SLOAD GT ISZERO JUMPDEST DUP1 ISZERO PUSH2 0x4FB JUMPI POP DUP1 PUSH1 0x2 ADD SLOAD DUP2 PUSH1 0x3 ADD PUSH1 0x1 ADD SLOAD PUSH2 0x4F0 SWAP2 SWAP1 PUSH2 0x1325 JUMP JUMPDEST DUP4 PUSH1 0x3 ADD PUSH1 0x1 ADD SLOAD LT ISZERO JUMPDEST DUP1 ISZERO PUSH2 0x524 JUMPI POP DUP1 PUSH1 0x2 ADD SLOAD DUP2 PUSH1 0x3 ADD PUSH1 0x1 ADD SLOAD PUSH2 0x519 SWAP2 SWAP1 PUSH2 0x1359 JUMP JUMPDEST DUP4 PUSH1 0x3 ADD PUSH1 0x1 ADD SLOAD GT ISZERO JUMPDEST ISZERO PUSH2 0x5D7 JUMPI PUSH1 0xA DUP2 PUSH1 0x2 ADD SLOAD PUSH2 0x53A SWAP2 SWAP1 PUSH2 0x1325 JUMP JUMPDEST DUP2 PUSH1 0x2 ADD DUP2 SWAP1 SSTORE POP PUSH1 0xA DUP4 PUSH1 0x2 ADD SLOAD PUSH2 0x553 SWAP2 SWAP1 PUSH2 0x1359 JUMP JUMPDEST DUP4 PUSH1 0x2 ADD DUP2 SWAP1 SSTORE POP PUSH1 0x0 DUP2 PUSH1 0x2 ADD SLOAD SUB PUSH2 0x5D6 JUMPI PUSH1 0x0 DUP6 PUSH1 0x1 ADD DUP4 PUSH1 0x3 DUP2 LT PUSH2 0x57F JUMPI PUSH2 0x57E PUSH2 0x127F JUMP JUMPDEST JUMPDEST PUSH1 0x6 MUL ADD PUSH1 0x2 ADD DUP2 SWAP1 SSTORE POP PUSH1 0x40 MLOAD DUP1 PUSH1 0x40 ADD PUSH1 0x40 MSTORE DUP1 PUSH1 0x0 DUP2 MSTORE PUSH1 0x20 ADD PUSH1 0x0 DUP2 MSTORE POP DUP6 PUSH1 0x1 ADD DUP4 PUSH1 0x3 DUP2 LT PUSH2 0x5B7 JUMPI PUSH2 0x5B6 PUSH2 0x127F JUMP JUMPDEST JUMPDEST PUSH1 0x6 MUL ADD PUSH1 0x3 ADD PUSH1 0x0 DUP3 ADD MLOAD DUP2 PUSH1 0x0 ADD SSTORE PUSH1 0x20 DUP3 ADD MLOAD DUP2 PUSH1 0x1 ADD SSTORE SWAP1 POP POP JUMPDEST JUMPDEST POP JUMPDEST DUP1 DUP1 PUSH2 0x5E4 SWAP1 PUSH2 0x12DD JUMP JUMPDEST SWAP2 POP POP PUSH2 0x459 JUMP JUMPDEST POP PUSH1 0x0 DUP1 PUSH1 0x0 JUMPDEST PUSH1 0x3 DUP2 LT ISZERO PUSH2 0x647 JUMPI PUSH1 0x0 DUP7 PUSH1 0x1 ADD DUP3 PUSH1 0x3 DUP2 LT PUSH2 0x614 JUMPI PUSH2 0x613 PUSH2 0x127F JUMP JUMPDEST JUMPDEST PUSH1 0x6 MUL ADD PUSH1 0x2 ADD SLOAD GT ISZERO PUSH2 0x634 JUMPI DUP3 DUP1 PUSH2 0x62D SWAP1 PUSH2 0x12DD JUMP JUMPDEST SWAP4 POP POP DUP1 SWAP2 POP JUMPDEST DUP1 DUP1 PUSH2 0x63F SWAP1 PUSH2 0x12DD JUMP JUMPDEST SWAP2 POP POP PUSH2 0x5F3 JUMP JUMPDEST POP PUSH1 0x1 DUP3 SUB PUSH2 0x702 JUMPI PUSH1 0x0 DUP6 PUSH1 0x0 ADD PUSH1 0x0 PUSH2 0x100 EXP DUP2 SLOAD DUP2 PUSH1 0xFF MUL NOT AND SWAP1 DUP4 PUSH1 0x2 DUP2 GT ISZERO PUSH2 0x678 JUMPI PUSH2 0x677 PUSH2 0xF6B JUMP JUMPDEST JUMPDEST MUL OR SWAP1 SSTORE POP DUP5 PUSH1 0x1 ADD DUP2 PUSH1 0x3 DUP2 LT PUSH2 0x693 JUMPI PUSH2 0x692 PUSH2 0x127F JUMP JUMPDEST JUMPDEST PUSH1 0x6 MUL ADD PUSH1 0x0 ADD PUSH1 0x0 SWAP1 SLOAD SWAP1 PUSH2 0x100 EXP SWAP1 DIV PUSH20 0xFFFFFFFFFFFFFFFFFFFFFFFFFFFFFFFFFFFFFFFF AND PUSH20 0xFFFFFFFFFFFFFFFFFFFFFFFFFFFFFFFFFFFFFFFF AND PUSH2 0x8FC SELFBALANCE SWAP1 DUP2 ISZERO MUL SWAP1 PUSH1 0x40 MLOAD PUSH1 0x0 PUSH1 0x40 MLOAD DUP1 DUP4 SUB DUP2 DUP6 DUP9 DUP9 CALL SWAP4 POP POP POP POP ISZERO DUP1 ISZERO PUSH2 0x700 JUMPI RETURNDATASIZE PUSH1 0x0 DUP1 RETURNDATACOPY RETURNDATASIZE PUSH1 0x0 REVERT JUMPDEST POP JUMPDEST PUSH1 0x3C DUP6 PUSH1 0x1 ADD DUP6 PUSH1 0x3 DUP2 LT PUSH2 0x71A JUMPI PUSH2 0x719 PUSH2 0x127F JUMP JUMPDEST JUMPDEST PUSH1 0x6 MUL ADD PUSH1 0x5 ADD SLOAD TIMESTAMP PUSH2 0x72D SWAP2 SWAP1 PUSH2 0x1325 JUMP JUMPDEST LT PUSH2 0x79E JUMPI PUSH1 0x0 JUMPDEST PUSH1 0x3 DUP2 LT ISZERO PUSH2 0x79C JUMPI PUSH1 0xA DUP7 PUSH1 0x1 ADD DUP3 PUSH1 0x3 DUP2 LT PUSH2 0x756 JUMPI PUSH2 0x755 PUSH2 0x127F JUMP JUMPDEST JUMPDEST PUSH1 0x6 MUL ADD PUSH1 0x2 ADD SLOAD PUSH2 0x768 SWAP2 SWAP1 PUSH2 0x1359 JUMP JUMPDEST DUP7 PUSH1 0x1 ADD DUP3 PUSH1 0x3 DUP2 LT PUSH2 0x77E JUMPI PUSH2 0x77D PUSH2 0x127F JUMP JUMPDEST JUMPDEST PUSH1 0x6 MUL ADD PUSH1 0x2 ADD DUP2 SWAP1 SSTORE POP DUP1 DUP1 PUSH2 0x794 SWAP1 PUSH2 0x12DD JUMP JUMPDEST SWAP2 POP POP PUSH2 0x735 JUMP JUMPDEST POP JUMPDEST PUSH2 0x258 DUP6 PUSH1 0x1 ADD DUP6 PUSH1 0x3 DUP2 LT PUSH2 0x7B7 JUMPI PUSH2 0x7B6 PUSH2 0x127F JUMP JUMPDEST JUMPDEST PUSH1 0x6 MUL ADD PUSH1 0x5 ADD SLOAD TIMESTAMP PUSH2 0x7CA SWAP2 SWAP1 PUSH2 0x1325 JUMP JUMPDEST LT PUSH2 0x8FC JUMPI PUSH1 0x0 DUP6 PUSH1 0x0 ADD PUSH1 0x0 PUSH2 0x100 EXP DUP2 SLOAD DUP2 PUSH1 0xFF MUL NOT AND SWAP1 DUP4 PUSH1 0x2 DUP2 GT ISZERO PUSH2 0x7F7 JUMPI PUSH2 0x7F6 PUSH2 0xF6B JUMP JUMPDEST JUMPDEST MUL OR SWAP1 SSTORE POP PUSH1 0x0 DUP1 PUSH1 0x0 JUMPDEST PUSH1 0x3 DUP2 LT ISZERO PUSH2 0x867 JUMPI DUP3 DUP9 PUSH1 0x1 ADD DUP3 PUSH1 0x3 DUP2 LT PUSH2 0x822 JUMPI PUSH2 0x821 PUSH2 0x127F JUMP JUMPDEST JUMPDEST PUSH1 0x6 MUL ADD PUSH1 0x2 ADD SLOAD GT ISZERO PUSH2 0x854 JUMPI DUP8 PUSH1 0x1 ADD DUP2 PUSH1 0x3 DUP2 LT PUSH2 0x846 JUMPI PUSH2 0x845 PUSH2 0x127F JUMP JUMPDEST JUMPDEST PUSH1 0x6 MUL ADD PUSH1 0x2 ADD SLOAD SWAP3 POP DUP1 SWAP2 POP JUMPDEST DUP1 DUP1 PUSH2 0x85F SWAP1 PUSH2 0x12DD JUMP JUMPDEST SWAP2 POP POP PUSH2 0x802 JUMP JUMPDEST POP DUP7 PUSH1 0x1 ADD DUP2 PUSH1 0x3 DUP2 LT PUSH2 0x87E JUMPI PUSH2 0x87D PUSH2 0x127F JUMP JUMPDEST JUMPDEST PUSH1 0x6 MUL ADD PUSH1 0x0 ADD PUSH1 0x0 SWAP1 SLOAD SWAP1 PUSH2 0x100 EXP SWAP1 DIV PUSH20 0xFFFFFFFFFFFFFFFFFFFFFFFFFFFFFFFFFFFFFFFF AND PUSH20 0xFFFFFFFFFFFFFFFFFFFFFFFFFFFFFFFFFFFFFFFF AND PUSH2 0x8FC PUSH1 0x3 PUSH1 0x1A PUSH2 0x8CD SWAP2 SWAP1 PUSH2 0x138D JUMP JUMPDEST SWAP1 DUP2 ISZERO MUL SWAP1 PUSH1 0x40 MLOAD PUSH1 0x0 PUSH1 0x40 MLOAD DUP1 DUP4 SUB DUP2 DUP6 DUP9 DUP9 CALL SWAP4 POP POP POP POP ISZERO DUP1 ISZERO PUSH2 0x8F8 JUMPI RETURNDATASIZE PUSH1 0x0 DUP1 RETURNDATACOPY RETURNDATASIZE PUSH1 0x0 REVERT JUMPDEST POP POP POP JUMPDEST POP POP POP POP POP POP POP POP JUMP JUMPDEST PUSH1 0x6 PUSH1 0x20 MSTORE DUP1 PUSH1 0x0 MSTORE PUSH1 0x40 PUSH1 0x0 KECCAK256 PUSH1 0x0 SWAP2 POP SWAP1 POP DUP1 PUSH1 0x0 ADD PUSH1 0x0 SWAP1 SLOAD SWAP1 PUSH2 0x100 EXP SWAP1 DIV PUSH1 0xFF AND SWAP1 DUP1 PUSH1 0x13 ADD PUSH1 0x40 MLOAD DUP1 PUSH1 0x40 ADD PUSH1 0x40 MSTORE SWAP1 DUP2 PUSH1 0x0 DUP3 ADD SLOAD DUP2 MSTORE PUSH1 0x20 ADD PUSH1 0x1 DUP3 ADD SLOAD DUP2 MSTORE POP POP SWAP1 POP DUP3 JUMP JUMPDEST PUSH1 0x3C DUP2 JUMP JUMPDEST PUSH1 0xA DUP2 JUMP JUMPDEST PUSH1 0x3 DUP2 JUMP JUMPDEST PUSH2 0x96C PUSH2 0xDF4 JUMP JUMPDEST PUSH1 0x6 PUSH1 0x0 DUP4 DUP2 MSTORE PUSH1 0x20 ADD SWAP1 DUP2 MSTORE PUSH1 0x20 ADD PUSH1 0x0 KECCAK256 PUSH1 0x1 ADD PUSH1 0x3 DUP1 PUSH1 0x20 MUL PUSH1 0x40 MLOAD SWAP1 DUP2 ADD PUSH1 0x40 MSTORE DUP1 SWAP3 SWAP2 SWAP1 PUSH1 0x0 SWAP1 JUMPDEST DUP3 DUP3 LT ISZERO PUSH2 0xA5D JUMPI DUP4 DUP3 PUSH1 0x6 MUL ADD PUSH1 0x40 MLOAD DUP1 PUSH1 0xA0 ADD PUSH1 0x40 MSTORE SWAP1 DUP2 PUSH1 0x0 DUP3 ADD PUSH1 0x0 SWAP1 SLOAD SWAP1 PUSH2 0x100 EXP SWAP1 DIV PUSH20 0xFFFFFFFFFFFFFFFFFFFFFFFFFFFFFFFFFFFFFFFF AND PUSH20 0xFFFFFFFFFFFFFFFFFFFFFFFFFFFFFFFFFFFFFFFF AND PUSH20 0xFFFFFFFFFFFFFFFFFFFFFFFFFFFFFFFFFFFFFFFF AND DUP2 MSTORE PUSH1 0x20 ADD PUSH1 0x1 DUP3 ADD SLOAD DUP2 MSTORE PUSH1 0x20 ADD PUSH1 0x2 DUP3 ADD SLOAD DUP2 MSTORE PUSH1 0x20 ADD PUSH1 0x3 DUP3 ADD PUSH1 0x40 MLOAD DUP1 PUSH1 0x40 ADD PUSH1 0x40 MSTORE SWAP1 DUP2 PUSH1 0x0 DUP3 ADD SLOAD DUP2 MSTORE PUSH1 0x20 ADD PUSH1 0x1 DUP3 ADD SLOAD DUP2 MSTORE POP POP DUP2 MSTORE PUSH1 0x20 ADD PUSH1 0x5 DUP3 ADD SLOAD DUP2 MSTORE POP POP DUP2 MSTORE PUSH1 0x20 ADD SWAP1 PUSH1 0x1 ADD SWAP1 PUSH2 0x999 JUMP JUMPDEST POP POP POP POP SWAP1 POP SWAP2 SWAP1 POP JUMP JUMPDEST PUSH1 0x0 DUP2 PUSH1 0x3 DUP2 LT PUSH2 0xA78 JUMPI PUSH1 0x0 DUP1 REVERT JUMPDEST PUSH1 0x2 MUL ADD PUSH1 0x0 SWAP2 POP SWAP1 POP DUP1 PUSH1 0x0 ADD SLOAD SWAP1 DUP1 PUSH1 0x1 ADD SLOAD SWAP1 POP DUP3 JUMP JUMPDEST PUSH1 0x0 PUSH1 0x1A CALLVALUE LT ISZERO PUSH2 0xAD8 JUMPI PUSH1 0x40 MLOAD PUSH32 0x8C379A000000000000000000000000000000000000000000000000000000000 DUP2 MSTORE PUSH1 0x4 ADD PUSH2 0xACF SWAP1 PUSH2 0x141B JUMP JUMPDEST PUSH1 0x40 MLOAD DUP1 SWAP2 SUB SWAP1 REVERT JUMPDEST PUSH1 0x0 PUSH2 0xAE5 PUSH1 0x7 SLOAD PUSH2 0xD26 JUMP JUMPDEST SWAP1 POP PUSH1 0x3 DUP2 SUB PUSH2 0xB93 JUMPI PUSH1 0x7 PUSH1 0x0 DUP2 SLOAD DUP1 SWAP3 SWAP2 SWAP1 PUSH2 0xB02 SWAP1 PUSH2 0x12DD JUMP JUMPDEST SWAP2 SWAP1 POP SSTORE POP PUSH1 0x1 PUSH1 0x6 PUSH1 0x0 PUSH1 0x7 SLOAD DUP2 MSTORE PUSH1 0x20 ADD SWAP1 DUP2 MSTORE PUSH1 0x20 ADD PUSH1 0x0 KECCAK256 PUSH1 0x0 ADD PUSH1 0x0 PUSH2 0x100 EXP DUP2 SLOAD DUP2 PUSH1 0xFF MUL NOT AND SWAP1 DUP4 PUSH1 0x2 DUP2 GT ISZERO PUSH2 0xB43 JUMPI PUSH2 0xB42 PUSH2 0xF6B JUMP JUMPDEST JUMPDEST MUL OR SWAP1 SSTORE POP PUSH1 0x40 MLOAD DUP1 PUSH1 0x40 ADD PUSH1 0x40 MSTORE DUP1 PUSH1 0xA0 DUP2 MSTORE PUSH1 0x20 ADD PUSH1 0x5A DUP2 MSTORE POP PUSH1 0x6 PUSH1 0x0 PUSH1 0x7 SLOAD DUP2 MSTORE PUSH1 0x20 ADD SWAP1 DUP2 MSTORE PUSH1 0x20 ADD PUSH1 0x0 KECCAK256 PUSH1 0x13 ADD PUSH1 0x0 DUP3 ADD MLOAD DUP2 PUSH1 0x0 ADD SSTORE PUSH1 0x20 DUP3 ADD MLOAD DUP2 PUSH1 0x1 ADD SSTORE SWAP1 POP POP PUSH1 0x0 SWAP1 POP JUMPDEST PUSH1 0x40 MLOAD DUP1 PUSH1 0xA0 ADD PUSH1 0x40 MSTORE DUP1 CALLER PUSH20 0xFFFFFFFFFFFFFFFFFFFFFFFFFFFFFFFFFFFFFFFF AND DUP2 MSTORE PUSH1 0x20 ADD DUP3 DUP2 MSTORE PUSH1 0x20 ADD PUSH1 0x1E DUP2 MSTORE PUSH1 0x20 ADD PUSH1 0x0 DUP4 PUSH1 0x3 DUP2 LT PUSH2 0xBDB JUMPI PUSH2 0xBDA PUSH2 0x127F JUMP JUMPDEST JUMPDEST PUSH1 0x2 MUL ADD PUSH1 0x40 MLOAD DUP1 PUSH1 0x40 ADD PUSH1 0x40 MSTORE SWAP1 DUP2 PUSH1 0x0 DUP3 ADD SLOAD DUP2 MSTORE PUSH1 0x20 ADD PUSH1 0x1 DUP3 ADD SLOAD DUP2 MSTORE POP POP DUP2 MSTORE PUSH1 0x20 ADD TIMESTAMP DUP2 MSTORE POP PUSH1 0x6 PUSH1 0x0 PUSH1 0x7 SLOAD DUP2 MSTORE PUSH1 0x20 ADD SWAP1 DUP2 MSTORE PUSH1 0x20 ADD PUSH1 0x0 KECCAK256 PUSH1 0x1 ADD DUP3 PUSH1 0x3 DUP2 LT PUSH2 0xC31 JUMPI PUSH2 0xC30 PUSH2 0x127F JUMP JUMPDEST JUMPDEST PUSH1 0x6 MUL ADD PUSH1 0x0 DUP3 ADD MLOAD DUP2 PUSH1 0x0 ADD PUSH1 0x0 PUSH2 0x100 EXP DUP2 SLOAD DUP2 PUSH20 0xFFFFFFFFFFFFFFFFFFFFFFFFFFFFFFFFFFFFFFFF MUL NOT AND SWAP1 DUP4 PUSH20 0xFFFFFFFFFFFFFFFFFFFFFFFFFFFFFFFFFFFFFFFF AND MUL OR SWAP1 SSTORE POP PUSH1 0x20 DUP3 ADD MLOAD DUP2 PUSH1 0x1 ADD SSTORE PUSH1 0x40 DUP3 ADD MLOAD DUP2 PUSH1 0x2 ADD SSTORE PUSH1 0x60 DUP3 ADD MLOAD DUP2 PUSH1 0x3 ADD PUSH1 0x0 DUP3 ADD MLOAD DUP2 PUSH1 0x0 ADD SSTORE PUSH1 0x20 DUP3 ADD MLOAD DUP2 PUSH1 0x1 ADD SSTORE POP POP PUSH1 0x80 DUP3 ADD MLOAD DUP2 PUSH1 0x5 ADD SSTORE SWAP1 POP POP PUSH1 0x3 PUSH1 0x6 PUSH1 0x0 PUSH1 0x7 SLOAD DUP2 MSTORE PUSH1 0x20 ADD SWAP1 DUP2 MSTORE PUSH1 0x20 ADD PUSH1 0x0 KECCAK256 POP PUSH1 0x3 SUB PUSH2 0xD1D JUMPI PUSH1 0x2 PUSH1 0x6 PUSH1 0x0 PUSH1 0x7 SLOAD DUP2 MSTORE PUSH1 0x20 ADD SWAP1 DUP2 MSTORE PUSH1 0x20 ADD PUSH1 0x0 KECCAK256 PUSH1 0x0 ADD PUSH1 0x0 PUSH2 0x100 EXP DUP2 SLOAD DUP2 PUSH1 0xFF MUL NOT AND SWAP1 DUP4 PUSH1 0x2 DUP2 GT ISZERO PUSH2 0xD17 JUMPI PUSH2 0xD16 PUSH2 0xF6B JUMP JUMPDEST JUMPDEST MUL OR SWAP1 SSTORE POP JUMPDEST PUSH1 0x7 SLOAD SWAP2 POP POP SWAP1 JUMP JUMPDEST PUSH1 0x0 DUP1 PUSH1 0x0 SWAP1 POP PUSH1 0x0 JUMPDEST PUSH1 0x3 DUP2 LT ISZERO PUSH2 0xDDE JUMPI PUSH1 0x0 PUSH20 0xFFFFFFFFFFFFFFFFFFFFFFFFFFFFFFFFFFFFFFFF AND PUSH1 0x6 PUSH1 0x0 DUP7 DUP2 MSTORE PUSH1 0x20 ADD SWAP1 DUP2 MSTORE PUSH1 0x20 ADD PUSH1 0x0 KECCAK256 PUSH1 0x1 ADD DUP3 PUSH1 0x3 DUP2 LT PUSH2 0xD79 JUMPI PUSH2 0xD78 PUSH2 0x127F JUMP JUMPDEST JUMPDEST PUSH1 0x6 MUL ADD PUSH1 0x0 ADD PUSH1 0x0 SWAP1 SLOAD SWAP1 PUSH2 0x100 EXP SWAP1 DIV PUSH20 0xFFFFFFFFFFFFFFFFFFFFFFFFFFFFFFFFFFFFFFFF AND PUSH20 0xFFFFFFFFFFFFFFFFFFFFFFFFFFFFFFFFFFFFFFFF AND EQ PUSH2 0xDCB JUMPI DUP2 DUP1 PUSH2 0xDC7 SWAP1 PUSH2 0x12DD JUMP JUMPDEST SWAP3 POP POP JUMPDEST DUP1 DUP1 PUSH2 0xDD6 SWAP1 PUSH2 0x12DD JUMP JUMPDEST SWAP2 POP POP PUSH2 0xD30 JUMP JUMPDEST POP DUP1 SWAP2 POP POP SWAP2 SWAP1 POP JUMP JUMPDEST PUSH2 0x258 DUP2 JUMP JUMPDEST PUSH1 0x7 SLOAD DUP2 JUMP JUMPDEST PUSH1 0x40 MLOAD DUP1 PUSH1 0x60 ADD PUSH1 0x40 MSTORE DUP1 PUSH1 0x3 SWAP1 JUMPDEST PUSH2 0xE0B PUSH2 0xE21 JUMP JUMPDEST DUP2 MSTORE PUSH1 0x20 ADD SWAP1 PUSH1 0x1 SWAP1 SUB SWAP1 DUP2 PUSH2 0xE03 JUMPI SWAP1 POP POP SWAP1 JUMP JUMPDEST PUSH1 0x40 MLOAD DUP1 PUSH1 0xA0 ADD PUSH1 0x40 MSTORE DUP1 PUSH1 0x0 PUSH20 0xFFFFFFFFFFFFFFFFFFFFFFFFFFFFFFFFFFFFFFFF AND DUP2 MSTORE PUSH1 0x20 ADD PUSH1 0x0 DUP2 MSTORE PUSH1 0x20 ADD PUSH1 0x0 DUP2 MSTORE PUSH1 0x20 ADD PUSH2 0xE5F PUSH2 0xE6C JUMP JUMPDEST DUP2 MSTORE PUSH1 0x20 ADD PUSH1 0x0 DUP2 MSTORE POP SWAP1 JUMP JUMPDEST PUSH1 0x40 MLOAD DUP1 PUSH1 0x40 ADD PUSH1 0x40 MSTORE DUP1 PUSH1 0x0 DUP2 MSTORE PUSH1 0x20 ADD PUSH1 0x0 DUP2 MSTORE POP SWAP1 JUMP JUMPDEST PUSH1 0x0 DUP2 SWAP1 POP SWAP2 SWAP1 POP JUMP JUMPDEST PUSH2 0xE99 DUP2 PUSH2 0xE86 JUMP JUMPDEST DUP3 MSTORE POP POP JUMP JUMPDEST PUSH1 0x0 PUSH1 0x20 DUP3 ADD SWAP1 POP PUSH2 0xEB4 PUSH1 0x0 DUP4 ADD DUP5 PUSH2 0xE90 JUMP JUMPDEST SWAP3 SWAP2 POP POP JUMP JUMPDEST PUSH1 0x0 DUP1 REVERT JUMPDEST PUSH2 0xEC8 DUP2 PUSH2 0xE86 JUMP JUMPDEST DUP2 EQ PUSH2 0xED3 JUMPI PUSH1 0x0 DUP1 REVERT JUMPDEST POP JUMP JUMPDEST PUSH1 0x0 DUP2 CALLDATALOAD SWAP1 POP PUSH2 0xEE5 DUP2 PUSH2 0xEBF JUMP JUMPDEST SWAP3 SWAP2 POP POP JUMP JUMPDEST PUSH1 0x0 DUP1 PUSH1 0x0 PUSH1 0x60 DUP5 DUP7 SUB SLT ISZERO PUSH2 0xF04 JUMPI PUSH2 0xF03 PUSH2 0xEBA JUMP JUMPDEST JUMPDEST PUSH1 0x0 PUSH2 0xF12 DUP7 DUP3 DUP8 ADD PUSH2 0xED6 JUMP JUMPDEST SWAP4 POP POP PUSH1 0x20 PUSH2 0xF23 DUP7 DUP3 DUP8 ADD PUSH2 0xED6 JUMP JUMPDEST SWAP3 POP POP PUSH1 0x40 PUSH2 0xF34 DUP7 DUP3 DUP8 ADD PUSH2 0xED6 JUMP JUMPDEST SWAP2 POP POP SWAP3 POP SWAP3 POP SWAP3 JUMP JUMPDEST PUSH1 0x0 PUSH1 0x20 DUP3 DUP5 SUB SLT ISZERO PUSH2 0xF54 JUMPI PUSH2 0xF53 PUSH2 0xEBA JUMP JUMPDEST JUMPDEST PUSH1 0x0 PUSH2 0xF62 DUP5 DUP3 DUP6 ADD PUSH2 0xED6 JUMP JUMPDEST SWAP2 POP POP SWAP3 SWAP2 POP POP JUMP JUMPDEST PUSH32 0x4E487B7100000000000000000000000000000000000000000000000000000000 PUSH1 0x0 MSTORE PUSH1 0x21 PUSH1 0x4 MSTORE PUSH1 0x24 PUSH1 0x0 REVERT JUMPDEST PUSH1 0x3 DUP2 LT PUSH2 0xFAB JUMPI PUSH2 0xFAA PUSH2 0xF6B JUMP JUMPDEST JUMPDEST POP JUMP JUMPDEST PUSH1 0x0 DUP2 SWAP1 POP PUSH2 0xFBC DUP3 PUSH2 0xF9A JUMP JUMPDEST SWAP2 SWAP1 POP JUMP JUMPDEST PUSH1 0x0 PUSH2 0xFCC DUP3 PUSH2 0xFAE JUMP JUMPDEST SWAP1 POP SWAP2 SWAP1 POP JUMP JUMPDEST PUSH2 0xFDC DUP2 PUSH2 0xFC1 JUMP JUMPDEST DUP3 MSTORE POP POP JUMP JUMPDEST PUSH2 0xFEB DUP2 PUSH2 0xE86 JUMP JUMPDEST DUP3 MSTORE POP POP JUMP JUMPDEST PUSH1 0x40 DUP3 ADD PUSH1 0x0 DUP3 ADD MLOAD PUSH2 0x1007 PUSH1 0x0 DUP6 ADD DUP3 PUSH2 0xFE2 JUMP JUMPDEST POP PUSH1 0x20 DUP3 ADD MLOAD PUSH2 0x101A PUSH1 0x20 DUP6 ADD DUP3 PUSH2 0xFE2 JUMP JUMPDEST POP POP POP POP JUMP JUMPDEST PUSH1 0x0 PUSH1 0x60 DUP3 ADD SWAP1 POP PUSH2 0x1035 PUSH1 0x0 DUP4 ADD DUP6 PUSH2 0xFD3 JUMP JUMPDEST PUSH2 0x1042 PUSH1 0x20 DUP4 ADD DUP5 PUSH2 0xFF1 JUMP JUMPDEST SWAP4 SWAP3 POP POP POP JUMP JUMPDEST PUSH1 0x0 PUSH1 0x3 SWAP1 POP SWAP2 SWAP1 POP JUMP JUMPDEST PUSH1 0x0 DUP2 SWAP1 POP SWAP3 SWAP2 POP POP JUMP JUMPDEST PUSH1 0x0 DUP2 SWAP1 POP SWAP2 SWAP1 POP JUMP JUMPDEST PUSH1 0x0 PUSH20 0xFFFFFFFFFFFFFFFFFFFFFFFFFFFFFFFFFFFFFFFF DUP3 AND SWAP1 POP SWAP2 SWAP1 POP JUMP JUMPDEST PUSH1 0x0 PUSH2 0x1094 DUP3 PUSH2 0x1069 JUMP JUMPDEST SWAP1 POP SWAP2 SWAP1 POP JUMP JUMPDEST PUSH2 0x10A4 DUP2 PUSH2 0x1089 JUMP JUMPDEST DUP3 MSTORE POP POP JUMP JUMPDEST PUSH1 0x40 DUP3 ADD PUSH1 0x0 DUP3 ADD MLOAD PUSH2 0x10C0 PUSH1 0x0 DUP6 ADD DUP3 PUSH2 0xFE2 JUMP JUMPDEST POP PUSH1 0x20 DUP3 ADD MLOAD PUSH2 0x10D3 PUSH1 0x20 DUP6 ADD DUP3 PUSH2 0xFE2 JUMP JUMPDEST POP POP POP POP JUMP JUMPDEST PUSH1 0xC0 DUP3 ADD PUSH1 0x0 DUP3 ADD MLOAD PUSH2 0x10EF PUSH1 0x0 DUP6 ADD DUP3 PUSH2 0x109B JUMP JUMPDEST POP PUSH1 0x20 DUP3 ADD MLOAD PUSH2 0x1102 PUSH1 0x20 DUP6 ADD DUP3 PUSH2 0xFE2 JUMP JUMPDEST POP PUSH1 0x40 DUP3 ADD MLOAD PUSH2 0x1115 PUSH1 0x40 DUP6 ADD DUP3 PUSH2 0xFE2 JUMP JUMPDEST POP PUSH1 0x60 DUP3 ADD MLOAD PUSH2 0x1128 PUSH1 0x60 DUP6 ADD DUP3 PUSH2 0x10AA JUMP JUMPDEST POP PUSH1 0x80 DUP3 ADD MLOAD PUSH2 0x113B PUSH1 0xA0 DUP6 ADD DUP3 PUSH2 0xFE2 JUMP JUMPDEST POP POP POP POP JUMP JUMPDEST PUSH1 0x0 PUSH2 0x114D DUP4 DUP4 PUSH2 0x10D9 JUMP JUMPDEST PUSH1 0xC0 DUP4 ADD SWAP1 POP SWAP3 SWAP2 POP POP JUMP JUMPDEST PUSH1 0x0 PUSH1 0x20 DUP3 ADD SWAP1 POP SWAP2 SWAP1 POP JUMP JUMPDEST PUSH2 0x116F DUP2 PUSH2 0x1049 JUMP JUMPDEST PUSH2 0x1179 DUP2 DUP5 PUSH2 0x1054 JUMP JUMPDEST SWAP3 POP PUSH2 0x1184 DUP3 PUSH2 0x105F JUMP JUMPDEST DUP1 PUSH1 0x0 JUMPDEST DUP4 DUP2 LT ISZERO PUSH2 0x11B5 JUMPI DUP2 MLOAD PUSH2 0x119C DUP8 DUP3 PUSH2 0x1141 JUMP JUMPDEST SWAP7 POP PUSH2 0x11A7 DUP4 PUSH2 0x1159 JUMP JUMPDEST SWAP3 POP POP PUSH1 0x1 DUP2 ADD SWAP1 POP PUSH2 0x1188 JUMP JUMPDEST POP POP POP POP POP POP JUMP JUMPDEST PUSH1 0x0 PUSH2 0x240 DUP3 ADD SWAP1 POP PUSH2 0x11D3 PUSH1 0x0 DUP4 ADD DUP5 PUSH2 0x1166 JUMP JUMPDEST SWAP3 SWAP2 POP POP JUMP JUMPDEST PUSH1 0x0 PUSH1 0x40 DUP3 ADD SWAP1 POP PUSH2 0x11EE PUSH1 0x0 DUP4 ADD DUP6 PUSH2 0xE90 JUMP JUMPDEST PUSH2 0x11FB PUSH1 0x20 DUP4 ADD DUP5 PUSH2 0xE90 JUMP JUMPDEST SWAP4 SWAP3 POP POP POP JUMP JUMPDEST PUSH1 0x0 DUP3 DUP3 MSTORE PUSH1 0x20 DUP3 ADD SWAP1 POP SWAP3 SWAP2 POP POP JUMP JUMPDEST PUSH32 0x47616D65206973206E6F74206163746976650000000000000000000000000000 PUSH1 0x0 DUP3 ADD MSTORE POP JUMP JUMPDEST PUSH1 0x0 PUSH2 0x1249 PUSH1 0x12 DUP4 PUSH2 0x1202 JUMP JUMPDEST SWAP2 POP PUSH2 0x1254 DUP3 PUSH2 0x1213 JUMP JUMPDEST PUSH1 0x20 DUP3 ADD SWAP1 POP SWAP2 SWAP1 POP JUMP JUMPDEST PUSH1 0x0 PUSH1 0x20 DUP3 ADD SWAP1 POP DUP2 DUP2 SUB PUSH1 0x0 DUP4 ADD MSTORE PUSH2 0x1278 DUP2 PUSH2 0x123C JUMP JUMPDEST SWAP1 POP SWAP2 SWAP1 POP JUMP JUMPDEST PUSH32 0x4E487B7100000000000000000000000000000000000000000000000000000000 PUSH1 0x0 MSTORE PUSH1 0x32 PUSH1 0x4 MSTORE PUSH1 0x24 PUSH1 0x0 REVERT JUMPDEST PUSH32 0x4E487B7100000000000000000000000000000000000000000000000000000000 PUSH1 0x0 MSTORE PUSH1 0x11 PUSH1 0x4 MSTORE PUSH1 0x24 PUSH1 0x0 REVERT JUMPDEST PUSH1 0x0 PUSH2 0x12E8 DUP3 PUSH2 0xE86 JUMP JUMPDEST SWAP2 POP PUSH32 0xFFFFFFFFFFFFFFFFFFFFFFFFFFFFFFFFFFFFFFFFFFFFFFFFFFFFFFFFFFFFFFFF DUP3 SUB PUSH2 0x131A JUMPI PUSH2 0x1319 PUSH2 0x12AE JUMP JUMPDEST JUMPDEST PUSH1 0x1 DUP3 ADD SWAP1 POP SWAP2 SWAP1 POP JUMP JUMPDEST PUSH1 0x0 PUSH2 0x1330 DUP3 PUSH2 0xE86 JUMP JUMPDEST SWAP2 POP PUSH2 0x133B DUP4 PUSH2 0xE86 JUMP JUMPDEST SWAP3 POP DUP3 DUP3 SUB SWAP1 POP DUP2 DUP2 GT ISZERO PUSH2 0x1353 JUMPI PUSH2 0x1352 PUSH2 0x12AE JUMP JUMPDEST JUMPDEST SWAP3 SWAP2 POP POP JUMP JUMPDEST PUSH1 0x0 PUSH2 0x1364 DUP3 PUSH2 0xE86 JUMP JUMPDEST SWAP2 POP PUSH2 0x136F DUP4 PUSH2 0xE86 JUMP JUMPDEST SWAP3 POP DUP3 DUP3 ADD SWAP1 POP DUP1 DUP3 GT ISZERO PUSH2 0x1387 JUMPI PUSH2 0x1386 PUSH2 0x12AE JUMP JUMPDEST JUMPDEST SWAP3 SWAP2 POP POP JUMP JUMPDEST PUSH1 0x0 PUSH2 0x1398 DUP3 PUSH2 0xE86 JUMP JUMPDEST SWAP2 POP PUSH2 0x13A3 DUP4 PUSH2 0xE86 JUMP JUMPDEST SWAP3 POP DUP3 DUP3 MUL PUSH2 0x13B1 DUP2 PUSH2 0xE86 JUMP JUMPDEST SWAP2 POP DUP3 DUP3 DIV DUP5 EQ DUP4 ISZERO OR PUSH2 0x13C8 JUMPI PUSH2 0x13C7 PUSH2 0x12AE JUMP JUMPDEST JUMPDEST POP SWAP3 SWAP2 POP POP JUMP JUMPDEST PUSH32 0x76616C75652073656E74206E6F7420656E6F7567680000000000000000000000 PUSH1 0x0 DUP3 ADD MSTORE POP JUMP JUMPDEST PUSH1 0x0 PUSH2 0x1405 PUSH1 0x15 DUP4 PUSH2 0x1202 JUMP JUMPDEST SWAP2 POP PUSH2 0x1410 DUP3 PUSH2 0x13CF JUMP JUMPDEST PUSH1 0x20 DUP3 ADD SWAP1 POP SWAP2 SWAP1 POP JUMP JUMPDEST PUSH1 0x0 PUSH1 0x20 DUP3 ADD SWAP1 POP DUP2 DUP2 SUB PUSH1 0x0 DUP4 ADD MSTORE PUSH2 0x1434 DUP2 PUSH2 0x13F8 JUMP JUMPDEST SWAP1 POP SWAP2 SWAP1 POP JUMP INVALID LOG2 PUSH5 0x6970667358 0x22 SLT KECCAK256 0xDA RETURN DIFFICULTY PUSH21 0xE5B961BA28C287048E58CDFB72476163C68AAAEF1E 0xBA MULMOD DUP12 0xC9 KECCAK256 MUL 0xD8 PUSH5 0x736F6C6343 STOP ADDMOD GT STOP CALLER "},"methodIdentifiers":{"LIFE_CHANGE_AMOUNT()":"30aeb405","LIFE_INCREASE_TIME()":"2dd36188","LIFE_START_AMOUNT()":"0413bdb7","MAX_PLAYERS()":"4411b3eb","MAX_TIME_MINUTES()":"eec8089a","games(uint256)":"117a5b90","gamesCount()":"fb632b7c","getPlayers(uint256)":"460e2049","movePlayer(uint256,uint256,uint256)":"0bbb5714","nextPlayerId(uint256)":"d8929b9c","startGame()":"d65ab5f2","startingPositions(uint256)":"b4c5bf64"}}}}}