{
	"data": {
		"bytecode": {
			"linkReferences": {},
			"object": "60806040523480156200001157600080fd5b5060405180604001604052806000815260200160008152506000806003811062000040576200003f62000185565b5b600202016000820151816000015560208201518160010155905050604051806040016040528060008152602001600160a06200007d919062000111565b815250600060016003811062000098576200009762000185565b5b60020201600082015181600001556020820151816001015590505060405180604001604052806001605a620000ce919062000111565b815260200160008152506000600260038110620000f057620000ef62000185565b5b600202016000820151816000015560208201518160010155905050620001b4565b60006200011e826200014c565b91506200012b836200014c565b92508282101562000141576200014062000156565b5b828203905092915050565b6000819050919050565b7f4e487b7100000000000000000000000000000000000000000000000000000000600052601160045260246000fd5b7f4e487b7100000000000000000000000000000000000000000000000000000000600052603260045260246000fd5b610ed280620001c46000396000f3fe60806040526004361061004a5760003560e01c80630bbb57141461004f578063117a5b9014610078578063b4c5bf64146100b6578063d65ab5f2146100f4578063fb632b7c14610112575b600080fd5b34801561005b57600080fd5b5061007660048036038101906100719190610a54565b61013d565b005b34801561008457600080fd5b5061009f600480360381019061009a9190610a27565b6106ac565b6040516100ad929190610b49565b60405180910390f35b3480156100c257600080fd5b506100dd60048036038101906100d89190610a27565b6106fb565b6040516100eb929190610bcd565b60405180910390f35b6100fc610725565b6040516101099190610bb2565b60405180910390f35b34801561011e57600080fd5b50610127610a0c565b6040516101349190610bb2565b60405180910390f35b600060066000858152602001908152602001600020905060028081111561016757610166610dbc565b5b8160000160009054906101000a900460ff16600281111561018b5761018a610dbc565b5b146101cb576040517f08c379a00000000000000000000000000000000000000000000000000000000081526004016101c290610b92565b60405180910390fd5b6000805b6003811015610264573373ffffffffffffffffffffffffffffffffffffffff1683600101826003811061020557610204610deb565b5b6006020160000160009054906101000a900473ffffffffffffffffffffffffffffffffffffffff1673ffffffffffffffffffffffffffffffffffffffff16141561025157809150610264565b808061025c90610d44565b9150506101cf565b50600082600101826003811061027d5761027c610deb565b5b6006020190506045856102909190610c5d565b8160030160000160008282546102a69190610c07565b925050819055506045846102ba9190610c5d565b8160030160010160008282546102d09190610c07565b9250508190555042816005018190555060005b600381101561046457828114156102f957610451565b600084600101826003811061031157610310610deb565b5b6006020190508060020154816003016000015461032e9190610cb7565b8360030160000154101580156103615750806002015481600301600001546103569190610c07565b836003016000015411155b801561038a57508060020154816003016001015461037f9190610cb7565b836003016001015410155b80156103b35750806002015481600301600101546103a89190610c07565b836003016001015411155b1561044f578060020160008154809291906103cd90610d1a565b919050555060008160020154141561044e5760008560010183600381106103f7576103f6610deb565b5b6006020160020181905550604051806040016040528060008152602001600081525085600101836003811061042f5761042e610deb565b5b6006020160030160008201518160000155602082015181600101559050505b5b505b808061045c90610d44565b9150506102e3565b5060008060005b60038110156104bf57600086600101826003811061048c5761048b610deb565b5b600602016002015411156104ac5782806104a590610d44565b9350508091505b80806104b790610d44565b91505061046b565b50603c8560010185600381106104d8576104d7610deb565b5b6006020160050154426104eb9190610cb7565b106105445760005b60038110156105425785600101816003811061051257610511610deb565b5b60060201600201600081548092919061052a90610d44565b9190505550808061053a90610d44565b9150506104f3565b505b61025885600101856003811061055d5761055c610deb565b5b6006020160050154426105709190610cb7565b106106a25760008560000160006101000a81548160ff0219169083600281111561059d5761059c610dbc565b5b021790555060008060005b600381101561060d57828860010182600381106105c8576105c7610deb565b5b600602016002015411156105fa578760010181600381106105ec576105eb610deb565b5b600602016002015492508091505b808061060590610d44565b9150506105a8565b5086600101816003811061062457610623610deb565b5b6006020160000160009054906101000a900473ffffffffffffffffffffffffffffffffffffffff1673ffffffffffffffffffffffffffffffffffffffff166108fc600360016106739190610c5d565b9081150290604051600060405180830381858888f1935050505015801561069e573d6000803e3d6000fd5b5050505b5050505050505050565b60066020528060005260406000206000915090508060000160009054906101000a900460ff16908060130160405180604001604052908160008201548152602001600182015481525050905082565b6000816003811061070b57600080fd5b600202016000915090508060000154908060010154905082565b6000600134101561076b576040517f08c379a000000000000000000000000000000000000000000000000000000000815260040161076290610b72565b60405180910390fd5b6001600281111561077f5761077e610dbc565b5b60066000600754815260200190815260200160002060000160009054906101000a900460ff1660028111156107b7576107b6610dbc565b5b1461085c57600760008154809291906107cf90610d44565b9190505550600160066000600754815260200190815260200160002060000160006101000a81548160ff021916908360028111156108105761080f610dbc565b5b02179055506040518060400160405280605a815260200160a081525060066000600754815260200190815260200160002060130160008201518160000155602082015181600101559050505b600060066000600754815260200190815260200160002050600390506040518060a001604052803373ffffffffffffffffffffffffffffffffffffffff16815260200182815260200160018152602001600083600381106108c0576108bf610deb565b5b6002020160405180604001604052908160008201548152602001600182015481525050815260200142815250600660006007548152602001908152602001600020600101826003811061091657610915610deb565b5b6006020160008201518160000160006101000a81548173ffffffffffffffffffffffffffffffffffffffff021916908373ffffffffffffffffffffffffffffffffffffffff1602179055506020820151816001015560408201518160020155606082015181600301600082015181600001556020820151816001015550506080820151816005015590505060036006600060075481526020019081526020016000205060031415610a0357600260066000600754815260200190815260200160002060000160006101000a81548160ff021916908360028111156109fd576109fc610dbc565b5b02179055505b60075491505090565b60075481565b600081359050610a2181610e85565b92915050565b600060208284031215610a3d57610a3c610e1a565b5b6000610a4b84828501610a12565b91505092915050565b600080600060608486031215610a6d57610a6c610e1a565b5b6000610a7b86828701610a12565b9350506020610a8c86828701610a12565b9250506040610a9d86828701610a12565b9150509250925092565b610ab081610d08565b82525050565b6000610ac3601583610bf6565b9150610ace82610e1f565b602082019050919050565b6000610ae6601283610bf6565b9150610af182610e48565b602082019050919050565b604082016000820151610b126000850182610b2b565b506020820151610b256020850182610b2b565b50505050565b610b3481610cfe565b82525050565b610b4381610cfe565b82525050565b6000606082019050610b5e6000830185610aa7565b610b6b6020830184610afc565b9392505050565b60006020820190508181036000830152610b8b81610ab6565b9050919050565b60006020820190508181036000830152610bab81610ad9565b9050919050565b6000602082019050610bc76000830184610b3a565b92915050565b6000604082019050610be26000830185610b3a565b610bef6020830184610b3a565b9392505050565b600082825260208201905092915050565b6000610c1282610cfe565b9150610c1d83610cfe565b9250827fffffffffffffffffffffffffffffffffffffffffffffffffffffffffffffffff03821115610c5257610c51610d8d565b5b828201905092915050565b6000610c6882610cfe565b9150610c7383610cfe565b9250817fffffffffffffffffffffffffffffffffffffffffffffffffffffffffffffffff0483118215151615610cac57610cab610d8d565b5b828202905092915050565b6000610cc282610cfe565b9150610ccd83610cfe565b925082821015610ce057610cdf610d8d565b5b828203905092915050565b6000819050610cf982610e71565b919050565b6000819050919050565b6000610d1382610ceb565b9050919050565b6000610d2582610cfe565b91506000821415610d3957610d38610d8d565b5b600182039050919050565b6000610d4f82610cfe565b91507fffffffffffffffffffffffffffffffffffffffffffffffffffffffffffffffff821415610d8257610d81610d8d565b5b600182019050919050565b7f4e487b7100000000000000000000000000000000000000000000000000000000600052601160045260246000fd5b7f4e487b7100000000000000000000000000000000000000000000000000000000600052602160045260246000fd5b7f4e487b7100000000000000000000000000000000000000000000000000000000600052603260045260246000fd5b600080fd5b7f76616c75652073656e74206e6f7420656e6f7567680000000000000000000000600082015250565b7f47616d65206973206e6f74206163746976650000000000000000000000000000600082015250565b60038110610e8257610e81610dbc565b5b50565b610e8e81610cfe565b8114610e9957600080fd5b5056fea2646970667358221220b19a180dc5f397d7856c4962a44a5e1132bf0548e508eaa3a38acc25ae67dbae64736f6c63430008060033",
			"opcodes": "PUSH1 0x80 PUSH1 0x40 MSTORE CALLVALUE DUP1 ISZERO PUSH3 0x11 JUMPI PUSH1 0x0 DUP1 REVERT JUMPDEST POP PUSH1 0x40 MLOAD DUP1 PUSH1 0x40 ADD PUSH1 0x40 MSTORE DUP1 PUSH1 0x0 DUP2 MSTORE PUSH1 0x20 ADD PUSH1 0x0 DUP2 MSTORE POP PUSH1 0x0 DUP1 PUSH1 0x3 DUP2 LT PUSH3 0x40 JUMPI PUSH3 0x3F PUSH3 0x185 JUMP JUMPDEST JUMPDEST PUSH1 0x2 MUL ADD PUSH1 0x0 DUP3 ADD MLOAD DUP2 PUSH1 0x0 ADD SSTORE PUSH1 0x20 DUP3 ADD MLOAD DUP2 PUSH1 0x1 ADD SSTORE SWAP1 POP POP PUSH1 0x40 MLOAD DUP1 PUSH1 0x40 ADD PUSH1 0x40 MSTORE DUP1 PUSH1 0x0 DUP2 MSTORE PUSH1 0x20 ADD PUSH1 0x1 PUSH1 0xA0 PUSH3 0x7D SWAP2 SWAP1 PUSH3 0x111 JUMP JUMPDEST DUP2 MSTORE POP PUSH1 0x0 PUSH1 0x1 PUSH1 0x3 DUP2 LT PUSH3 0x98 JUMPI PUSH3 0x97 PUSH3 0x185 JUMP JUMPDEST JUMPDEST PUSH1 0x2 MUL ADD PUSH1 0x0 DUP3 ADD MLOAD DUP2 PUSH1 0x0 ADD SSTORE PUSH1 0x20 DUP3 ADD MLOAD DUP2 PUSH1 0x1 ADD SSTORE SWAP1 POP POP PUSH1 0x40 MLOAD DUP1 PUSH1 0x40 ADD PUSH1 0x40 MSTORE DUP1 PUSH1 0x1 PUSH1 0x5A PUSH3 0xCE SWAP2 SWAP1 PUSH3 0x111 JUMP JUMPDEST DUP2 MSTORE PUSH1 0x20 ADD PUSH1 0x0 DUP2 MSTORE POP PUSH1 0x0 PUSH1 0x2 PUSH1 0x3 DUP2 LT PUSH3 0xF0 JUMPI PUSH3 0xEF PUSH3 0x185 JUMP JUMPDEST JUMPDEST PUSH1 0x2 MUL ADD PUSH1 0x0 DUP3 ADD MLOAD DUP2 PUSH1 0x0 ADD SSTORE PUSH1 0x20 DUP3 ADD MLOAD DUP2 PUSH1 0x1 ADD SSTORE SWAP1 POP POP PUSH3 0x1B4 JUMP JUMPDEST PUSH1 0x0 PUSH3 0x11E DUP3 PUSH3 0x14C JUMP JUMPDEST SWAP2 POP PUSH3 0x12B DUP4 PUSH3 0x14C JUMP JUMPDEST SWAP3 POP DUP3 DUP3 LT ISZERO PUSH3 0x141 JUMPI PUSH3 0x140 PUSH3 0x156 JUMP JUMPDEST JUMPDEST DUP3 DUP3 SUB SWAP1 POP SWAP3 SWAP2 POP POP JUMP JUMPDEST PUSH1 0x0 DUP2 SWAP1 POP SWAP2 SWAP1 POP JUMP JUMPDEST PUSH32 0x4E487B7100000000000000000000000000000000000000000000000000000000 PUSH1 0x0 MSTORE PUSH1 0x11 PUSH1 0x4 MSTORE PUSH1 0x24 PUSH1 0x0 REVERT JUMPDEST PUSH32 0x4E487B7100000000000000000000000000000000000000000000000000000000 PUSH1 0x0 MSTORE PUSH1 0x32 PUSH1 0x4 MSTORE PUSH1 0x24 PUSH1 0x0 REVERT JUMPDEST PUSH2 0xED2 DUP1 PUSH3 0x1C4 PUSH1 0x0 CODECOPY PUSH1 0x0 RETURN INVALID PUSH1 0x80 PUSH1 0x40 MSTORE PUSH1 0x4 CALLDATASIZE LT PUSH2 0x4A JUMPI PUSH1 0x0 CALLDATALOAD PUSH1 0xE0 SHR DUP1 PUSH4 0xBBB5714 EQ PUSH2 0x4F JUMPI DUP1 PUSH4 0x117A5B90 EQ PUSH2 0x78 JUMPI DUP1 PUSH4 0xB4C5BF64 EQ PUSH2 0xB6 JUMPI DUP1 PUSH4 0xD65AB5F2 EQ PUSH2 0xF4 JUMPI DUP1 PUSH4 0xFB632B7C EQ PUSH2 0x112 JUMPI JUMPDEST PUSH1 0x0 DUP1 REVERT JUMPDEST CALLVALUE DUP1 ISZERO PUSH2 0x5B JUMPI PUSH1 0x0 DUP1 REVERT JUMPDEST POP PUSH2 0x76 PUSH1 0x4 DUP1 CALLDATASIZE SUB DUP2 ADD SWAP1 PUSH2 0x71 SWAP2 SWAP1 PUSH2 0xA54 JUMP JUMPDEST PUSH2 0x13D JUMP JUMPDEST STOP JUMPDEST CALLVALUE DUP1 ISZERO PUSH2 0x84 JUMPI PUSH1 0x0 DUP1 REVERT JUMPDEST POP PUSH2 0x9F PUSH1 0x4 DUP1 CALLDATASIZE SUB DUP2 ADD SWAP1 PUSH2 0x9A SWAP2 SWAP1 PUSH2 0xA27 JUMP JUMPDEST PUSH2 0x6AC JUMP JUMPDEST PUSH1 0x40 MLOAD PUSH2 0xAD SWAP3 SWAP2 SWAP1 PUSH2 0xB49 JUMP JUMPDEST PUSH1 0x40 MLOAD DUP1 SWAP2 SUB SWAP1 RETURN JUMPDEST CALLVALUE DUP1 ISZERO PUSH2 0xC2 JUMPI PUSH1 0x0 DUP1 REVERT JUMPDEST POP PUSH2 0xDD PUSH1 0x4 DUP1 CALLDATASIZE SUB DUP2 ADD SWAP1 PUSH2 0xD8 SWAP2 SWAP1 PUSH2 0xA27 JUMP JUMPDEST PUSH2 0x6FB JUMP JUMPDEST PUSH1 0x40 MLOAD PUSH2 0xEB SWAP3 SWAP2 SWAP1 PUSH2 0xBCD JUMP JUMPDEST PUSH1 0x40 MLOAD DUP1 SWAP2 SUB SWAP1 RETURN JUMPDEST PUSH2 0xFC PUSH2 0x725 JUMP JUMPDEST PUSH1 0x40 MLOAD PUSH2 0x109 SWAP2 SWAP1 PUSH2 0xBB2 JUMP JUMPDEST PUSH1 0x40 MLOAD DUP1 SWAP2 SUB SWAP1 RETURN JUMPDEST CALLVALUE DUP1 ISZERO PUSH2 0x11E JUMPI PUSH1 0x0 DUP1 REVERT JUMPDEST POP PUSH2 0x127 PUSH2 0xA0C JUMP JUMPDEST PUSH1 0x40 MLOAD PUSH2 0x134 SWAP2 SWAP1 PUSH2 0xBB2 JUMP JUMPDEST PUSH1 0x40 MLOAD DUP1 SWAP2 SUB SWAP1 RETURN JUMPDEST PUSH1 0x0 PUSH1 0x6 PUSH1 0x0 DUP6 DUP2 MSTORE PUSH1 0x20 ADD SWAP1 DUP2 MSTORE PUSH1 0x20 ADD PUSH1 0x0 KECCAK256 SWAP1 POP PUSH1 0x2 DUP1 DUP2 GT ISZERO PUSH2 0x167 JUMPI PUSH2 0x166 PUSH2 0xDBC JUMP JUMPDEST JUMPDEST DUP2 PUSH1 0x0 ADD PUSH1 0x0 SWAP1 SLOAD SWAP1 PUSH2 0x100 EXP SWAP1 DIV PUSH1 0xFF AND PUSH1 0x2 DUP2 GT ISZERO PUSH2 0x18B JUMPI PUSH2 0x18A PUSH2 0xDBC JUMP JUMPDEST JUMPDEST EQ PUSH2 0x1CB JUMPI PUSH1 0x40 MLOAD PUSH32 0x8C379A000000000000000000000000000000000000000000000000000000000 DUP2 MSTORE PUSH1 0x4 ADD PUSH2 0x1C2 SWAP1 PUSH2 0xB92 JUMP JUMPDEST PUSH1 0x40 MLOAD DUP1 SWAP2 SUB SWAP1 REVERT JUMPDEST PUSH1 0x0 DUP1 JUMPDEST PUSH1 0x3 DUP2 LT ISZERO PUSH2 0x264 JUMPI CALLER PUSH20 0xFFFFFFFFFFFFFFFFFFFFFFFFFFFFFFFFFFFFFFFF AND DUP4 PUSH1 0x1 ADD DUP3 PUSH1 0x3 DUP2 LT PUSH2 0x205 JUMPI PUSH2 0x204 PUSH2 0xDEB JUMP JUMPDEST JUMPDEST PUSH1 0x6 MUL ADD PUSH1 0x0 ADD PUSH1 0x0 SWAP1 SLOAD SWAP1 PUSH2 0x100 EXP SWAP1 DIV PUSH20 0xFFFFFFFFFFFFFFFFFFFFFFFFFFFFFFFFFFFFFFFF AND PUSH20 0xFFFFFFFFFFFFFFFFFFFFFFFFFFFFFFFFFFFFFFFF AND EQ ISZERO PUSH2 0x251 JUMPI DUP1 SWAP2 POP PUSH2 0x264 JUMP JUMPDEST DUP1 DUP1 PUSH2 0x25C SWAP1 PUSH2 0xD44 JUMP JUMPDEST SWAP2 POP POP PUSH2 0x1CF JUMP JUMPDEST POP PUSH1 0x0 DUP3 PUSH1 0x1 ADD DUP3 PUSH1 0x3 DUP2 LT PUSH2 0x27D JUMPI PUSH2 0x27C PUSH2 0xDEB JUMP JUMPDEST JUMPDEST PUSH1 0x6 MUL ADD SWAP1 POP PUSH1 0x45 DUP6 PUSH2 0x290 SWAP2 SWAP1 PUSH2 0xC5D JUMP JUMPDEST DUP2 PUSH1 0x3 ADD PUSH1 0x0 ADD PUSH1 0x0 DUP3 DUP3 SLOAD PUSH2 0x2A6 SWAP2 SWAP1 PUSH2 0xC07 JUMP JUMPDEST SWAP3 POP POP DUP2 SWAP1 SSTORE POP PUSH1 0x45 DUP5 PUSH2 0x2BA SWAP2 SWAP1 PUSH2 0xC5D JUMP JUMPDEST DUP2 PUSH1 0x3 ADD PUSH1 0x1 ADD PUSH1 0x0 DUP3 DUP3 SLOAD PUSH2 0x2D0 SWAP2 SWAP1 PUSH2 0xC07 JUMP JUMPDEST SWAP3 POP POP DUP2 SWAP1 SSTORE POP TIMESTAMP DUP2 PUSH1 0x5 ADD DUP2 SWAP1 SSTORE POP PUSH1 0x0 JUMPDEST PUSH1 0x3 DUP2 LT ISZERO PUSH2 0x464 JUMPI DUP3 DUP2 EQ ISZERO PUSH2 0x2F9 JUMPI PUSH2 0x451 JUMP JUMPDEST PUSH1 0x0 DUP5 PUSH1 0x1 ADD DUP3 PUSH1 0x3 DUP2 LT PUSH2 0x311 JUMPI PUSH2 0x310 PUSH2 0xDEB JUMP JUMPDEST JUMPDEST PUSH1 0x6 MUL ADD SWAP1 POP DUP1 PUSH1 0x2 ADD SLOAD DUP2 PUSH1 0x3 ADD PUSH1 0x0 ADD SLOAD PUSH2 0x32E SWAP2 SWAP1 PUSH2 0xCB7 JUMP JUMPDEST DUP4 PUSH1 0x3 ADD PUSH1 0x0 ADD SLOAD LT ISZERO DUP1 ISZERO PUSH2 0x361 JUMPI POP DUP1 PUSH1 0x2 ADD SLOAD DUP2 PUSH1 0x3 ADD PUSH1 0x0 ADD SLOAD PUSH2 0x356 SWAP2 SWAP1 PUSH2 0xC07 JUMP JUMPDEST DUP4 PUSH1 0x3 ADD PUSH1 0x0 ADD SLOAD GT ISZERO JUMPDEST DUP1 ISZERO PUSH2 0x38A JUMPI POP DUP1 PUSH1 0x2 ADD SLOAD DUP2 PUSH1 0x3 ADD PUSH1 0x1 ADD SLOAD PUSH2 0x37F SWAP2 SWAP1 PUSH2 0xCB7 JUMP JUMPDEST DUP4 PUSH1 0x3 ADD PUSH1 0x1 ADD SLOAD LT ISZERO JUMPDEST DUP1 ISZERO PUSH2 0x3B3 JUMPI POP DUP1 PUSH1 0x2 ADD SLOAD DUP2 PUSH1 0x3 ADD PUSH1 0x1 ADD SLOAD PUSH2 0x3A8 SWAP2 SWAP1 PUSH2 0xC07 JUMP JUMPDEST DUP4 PUSH1 0x3 ADD PUSH1 0x1 ADD SLOAD GT ISZERO JUMPDEST ISZERO PUSH2 0x44F JUMPI DUP1 PUSH1 0x2 ADD PUSH1 0x0 DUP2 SLOAD DUP1 SWAP3 SWAP2 SWAP1 PUSH2 0x3CD SWAP1 PUSH2 0xD1A JUMP JUMPDEST SWAP2 SWAP1 POP SSTORE POP PUSH1 0x0 DUP2 PUSH1 0x2 ADD SLOAD EQ ISZERO PUSH2 0x44E JUMPI PUSH1 0x0 DUP6 PUSH1 0x1 ADD DUP4 PUSH1 0x3 DUP2 LT PUSH2 0x3F7 JUMPI PUSH2 0x3F6 PUSH2 0xDEB JUMP JUMPDEST JUMPDEST PUSH1 0x6 MUL ADD PUSH1 0x2 ADD DUP2 SWAP1 SSTORE POP PUSH1 0x40 MLOAD DUP1 PUSH1 0x40 ADD PUSH1 0x40 MSTORE DUP1 PUSH1 0x0 DUP2 MSTORE PUSH1 0x20 ADD PUSH1 0x0 DUP2 MSTORE POP DUP6 PUSH1 0x1 ADD DUP4 PUSH1 0x3 DUP2 LT PUSH2 0x42F JUMPI PUSH2 0x42E PUSH2 0xDEB JUMP JUMPDEST JUMPDEST PUSH1 0x6 MUL ADD PUSH1 0x3 ADD PUSH1 0x0 DUP3 ADD MLOAD DUP2 PUSH1 0x0 ADD SSTORE PUSH1 0x20 DUP3 ADD MLOAD DUP2 PUSH1 0x1 ADD SSTORE SWAP1 POP POP JUMPDEST JUMPDEST POP JUMPDEST DUP1 DUP1 PUSH2 0x45C SWAP1 PUSH2 0xD44 JUMP JUMPDEST SWAP2 POP POP PUSH2 0x2E3 JUMP JUMPDEST POP PUSH1 0x0 DUP1 PUSH1 0x0 JUMPDEST PUSH1 0x3 DUP2 LT ISZERO PUSH2 0x4BF JUMPI PUSH1 0x0 DUP7 PUSH1 0x1 ADD DUP3 PUSH1 0x3 DUP2 LT PUSH2 0x48C JUMPI PUSH2 0x48B PUSH2 0xDEB JUMP JUMPDEST JUMPDEST PUSH1 0x6 MUL ADD PUSH1 0x2 ADD SLOAD GT ISZERO PUSH2 0x4AC JUMPI DUP3 DUP1 PUSH2 0x4A5 SWAP1 PUSH2 0xD44 JUMP JUMPDEST SWAP4 POP POP DUP1 SWAP2 POP JUMPDEST DUP1 DUP1 PUSH2 0x4B7 SWAP1 PUSH2 0xD44 JUMP JUMPDEST SWAP2 POP POP PUSH2 0x46B JUMP JUMPDEST POP PUSH1 0x3C DUP6 PUSH1 0x1 ADD DUP6 PUSH1 0x3 DUP2 LT PUSH2 0x4D8 JUMPI PUSH2 0x4D7 PUSH2 0xDEB JUMP JUMPDEST JUMPDEST PUSH1 0x6 MUL ADD PUSH1 0x5 ADD SLOAD TIMESTAMP PUSH2 0x4EB SWAP2 SWAP1 PUSH2 0xCB7 JUMP JUMPDEST LT PUSH2 0x544 JUMPI PUSH1 0x0 JUMPDEST PUSH1 0x3 DUP2 LT ISZERO PUSH2 0x542 JUMPI DUP6 PUSH1 0x1 ADD DUP2 PUSH1 0x3 DUP2 LT PUSH2 0x512 JUMPI PUSH2 0x511 PUSH2 0xDEB JUMP JUMPDEST JUMPDEST PUSH1 0x6 MUL ADD PUSH1 0x2 ADD PUSH1 0x0 DUP2 SLOAD DUP1 SWAP3 SWAP2 SWAP1 PUSH2 0x52A SWAP1 PUSH2 0xD44 JUMP JUMPDEST SWAP2 SWAP1 POP SSTORE POP DUP1 DUP1 PUSH2 0x53A SWAP1 PUSH2 0xD44 JUMP JUMPDEST SWAP2 POP POP PUSH2 0x4F3 JUMP JUMPDEST POP JUMPDEST PUSH2 0x258 DUP6 PUSH1 0x1 ADD DUP6 PUSH1 0x3 DUP2 LT PUSH2 0x55D JUMPI PUSH2 0x55C PUSH2 0xDEB JUMP JUMPDEST JUMPDEST PUSH1 0x6 MUL ADD PUSH1 0x5 ADD SLOAD TIMESTAMP PUSH2 0x570 SWAP2 SWAP1 PUSH2 0xCB7 JUMP JUMPDEST LT PUSH2 0x6A2 JUMPI PUSH1 0x0 DUP6 PUSH1 0x0 ADD PUSH1 0x0 PUSH2 0x100 EXP DUP2 SLOAD DUP2 PUSH1 0xFF MUL NOT AND SWAP1 DUP4 PUSH1 0x2 DUP2 GT ISZERO PUSH2 0x59D JUMPI PUSH2 0x59C PUSH2 0xDBC JUMP JUMPDEST JUMPDEST MUL OR SWAP1 SSTORE POP PUSH1 0x0 DUP1 PUSH1 0x0 JUMPDEST PUSH1 0x3 DUP2 LT ISZERO PUSH2 0x60D JUMPI DUP3 DUP9 PUSH1 0x1 ADD DUP3 PUSH1 0x3 DUP2 LT PUSH2 0x5C8 JUMPI PUSH2 0x5C7 PUSH2 0xDEB JUMP JUMPDEST JUMPDEST PUSH1 0x6 MUL ADD PUSH1 0x2 ADD SLOAD GT ISZERO PUSH2 0x5FA JUMPI DUP8 PUSH1 0x1 ADD DUP2 PUSH1 0x3 DUP2 LT PUSH2 0x5EC JUMPI PUSH2 0x5EB PUSH2 0xDEB JUMP JUMPDEST JUMPDEST PUSH1 0x6 MUL ADD PUSH1 0x2 ADD SLOAD SWAP3 POP DUP1 SWAP2 POP JUMPDEST DUP1 DUP1 PUSH2 0x605 SWAP1 PUSH2 0xD44 JUMP JUMPDEST SWAP2 POP POP PUSH2 0x5A8 JUMP JUMPDEST POP DUP7 PUSH1 0x1 ADD DUP2 PUSH1 0x3 DUP2 LT PUSH2 0x624 JUMPI PUSH2 0x623 PUSH2 0xDEB JUMP JUMPDEST JUMPDEST PUSH1 0x6 MUL ADD PUSH1 0x0 ADD PUSH1 0x0 SWAP1 SLOAD SWAP1 PUSH2 0x100 EXP SWAP1 DIV PUSH20 0xFFFFFFFFFFFFFFFFFFFFFFFFFFFFFFFFFFFFFFFF AND PUSH20 0xFFFFFFFFFFFFFFFFFFFFFFFFFFFFFFFFFFFFFFFF AND PUSH2 0x8FC PUSH1 0x3 PUSH1 0x1 PUSH2 0x673 SWAP2 SWAP1 PUSH2 0xC5D JUMP JUMPDEST SWAP1 DUP2 ISZERO MUL SWAP1 PUSH1 0x40 MLOAD PUSH1 0x0 PUSH1 0x40 MLOAD DUP1 DUP4 SUB DUP2 DUP6 DUP9 DUP9 CALL SWAP4 POP POP POP POP ISZERO DUP1 ISZERO PUSH2 0x69E JUMPI RETURNDATASIZE PUSH1 0x0 DUP1 RETURNDATACOPY RETURNDATASIZE PUSH1 0x0 REVERT JUMPDEST POP POP POP JUMPDEST POP POP POP POP POP POP POP POP JUMP JUMPDEST PUSH1 0x6 PUSH1 0x20 MSTORE DUP1 PUSH1 0x0 MSTORE PUSH1 0x40 PUSH1 0x0 KECCAK256 PUSH1 0x0 SWAP2 POP SWAP1 POP DUP1 PUSH1 0x0 ADD PUSH1 0x0 SWAP1 SLOAD SWAP1 PUSH2 0x100 EXP SWAP1 DIV PUSH1 0xFF AND SWAP1 DUP1 PUSH1 0x13 ADD PUSH1 0x40 MLOAD DUP1 PUSH1 0x40 ADD PUSH1 0x40 MSTORE SWAP1 DUP2 PUSH1 0x0 DUP3 ADD SLOAD DUP2 MSTORE PUSH1 0x20 ADD PUSH1 0x1 DUP3 ADD SLOAD DUP2 MSTORE POP POP SWAP1 POP DUP3 JUMP JUMPDEST PUSH1 0x0 DUP2 PUSH1 0x3 DUP2 LT PUSH2 0x70B JUMPI PUSH1 0x0 DUP1 REVERT JUMPDEST PUSH1 0x2 MUL ADD PUSH1 0x0 SWAP2 POP SWAP1 POP DUP1 PUSH1 0x0 ADD SLOAD SWAP1 DUP1 PUSH1 0x1 ADD SLOAD SWAP1 POP DUP3 JUMP JUMPDEST PUSH1 0x0 PUSH1 0x1 CALLVALUE LT ISZERO PUSH2 0x76B JUMPI PUSH1 0x40 MLOAD PUSH32 0x8C379A000000000000000000000000000000000000000000000000000000000 DUP2 MSTORE PUSH1 0x4 ADD PUSH2 0x762 SWAP1 PUSH2 0xB72 JUMP JUMPDEST PUSH1 0x40 MLOAD DUP1 SWAP2 SUB SWAP1 REVERT JUMPDEST PUSH1 0x1 PUSH1 0x2 DUP2 GT ISZERO PUSH2 0x77F JUMPI PUSH2 0x77E PUSH2 0xDBC JUMP JUMPDEST JUMPDEST PUSH1 0x6 PUSH1 0x0 PUSH1 0x7 SLOAD DUP2 MSTORE PUSH1 0x20 ADD SWAP1 DUP2 MSTORE PUSH1 0x20 ADD PUSH1 0x0 KECCAK256 PUSH1 0x0 ADD PUSH1 0x0 SWAP1 SLOAD SWAP1 PUSH2 0x100 EXP SWAP1 DIV PUSH1 0xFF AND PUSH1 0x2 DUP2 GT ISZERO PUSH2 0x7B7 JUMPI PUSH2 0x7B6 PUSH2 0xDBC JUMP JUMPDEST JUMPDEST EQ PUSH2 0x85C JUMPI PUSH1 0x7 PUSH1 0x0 DUP2 SLOAD DUP1 SWAP3 SWAP2 SWAP1 PUSH2 0x7CF SWAP1 PUSH2 0xD44 JUMP JUMPDEST SWAP2 SWAP1 POP SSTORE POP PUSH1 0x1 PUSH1 0x6 PUSH1 0x0 PUSH1 0x7 SLOAD DUP2 MSTORE PUSH1 0x20 ADD SWAP1 DUP2 MSTORE PUSH1 0x20 ADD PUSH1 0x0 KECCAK256 PUSH1 0x0 ADD PUSH1 0x0 PUSH2 0x100 EXP DUP2 SLOAD DUP2 PUSH1 0xFF MUL NOT AND SWAP1 DUP4 PUSH1 0x2 DUP2 GT ISZERO PUSH2 0x810 JUMPI PUSH2 0x80F PUSH2 0xDBC JUMP JUMPDEST JUMPDEST MUL OR SWAP1 SSTORE POP PUSH1 0x40 MLOAD DUP1 PUSH1 0x40 ADD PUSH1 0x40 MSTORE DUP1 PUSH1 0x5A DUP2 MSTORE PUSH1 0x20 ADD PUSH1 0xA0 DUP2 MSTORE POP PUSH1 0x6 PUSH1 0x0 PUSH1 0x7 SLOAD DUP2 MSTORE PUSH1 0x20 ADD SWAP1 DUP2 MSTORE PUSH1 0x20 ADD PUSH1 0x0 KECCAK256 PUSH1 0x13 ADD PUSH1 0x0 DUP3 ADD MLOAD DUP2 PUSH1 0x0 ADD SSTORE PUSH1 0x20 DUP3 ADD MLOAD DUP2 PUSH1 0x1 ADD SSTORE SWAP1 POP POP JUMPDEST PUSH1 0x0 PUSH1 0x6 PUSH1 0x0 PUSH1 0x7 SLOAD DUP2 MSTORE PUSH1 0x20 ADD SWAP1 DUP2 MSTORE PUSH1 0x20 ADD PUSH1 0x0 KECCAK256 POP PUSH1 0x3 SWAP1 POP PUSH1 0x40 MLOAD DUP1 PUSH1 0xA0 ADD PUSH1 0x40 MSTORE DUP1 CALLER PUSH20 0xFFFFFFFFFFFFFFFFFFFFFFFFFFFFFFFFFFFFFFFF AND DUP2 MSTORE PUSH1 0x20 ADD DUP3 DUP2 MSTORE PUSH1 0x20 ADD PUSH1 0x1 DUP2 MSTORE PUSH1 0x20 ADD PUSH1 0x0 DUP4 PUSH1 0x3 DUP2 LT PUSH2 0x8C0 JUMPI PUSH2 0x8BF PUSH2 0xDEB JUMP JUMPDEST JUMPDEST PUSH1 0x2 MUL ADD PUSH1 0x40 MLOAD DUP1 PUSH1 0x40 ADD PUSH1 0x40 MSTORE SWAP1 DUP2 PUSH1 0x0 DUP3 ADD SLOAD DUP2 MSTORE PUSH1 0x20 ADD PUSH1 0x1 DUP3 ADD SLOAD DUP2 MSTORE POP POP DUP2 MSTORE PUSH1 0x20 ADD TIMESTAMP DUP2 MSTORE POP PUSH1 0x6 PUSH1 0x0 PUSH1 0x7 SLOAD DUP2 MSTORE PUSH1 0x20 ADD SWAP1 DUP2 MSTORE PUSH1 0x20 ADD PUSH1 0x0 KECCAK256 PUSH1 0x1 ADD DUP3 PUSH1 0x3 DUP2 LT PUSH2 0x916 JUMPI PUSH2 0x915 PUSH2 0xDEB JUMP JUMPDEST JUMPDEST PUSH1 0x6 MUL ADD PUSH1 0x0 DUP3 ADD MLOAD DUP2 PUSH1 0x0 ADD PUSH1 0x0 PUSH2 0x100 EXP DUP2 SLOAD DUP2 PUSH20 0xFFFFFFFFFFFFFFFFFFFFFFFFFFFFFFFFFFFFFFFF MUL NOT AND SWAP1 DUP4 PUSH20 0xFFFFFFFFFFFFFFFFFFFFFFFFFFFFFFFFFFFFFFFF AND MUL OR SWAP1 SSTORE POP PUSH1 0x20 DUP3 ADD MLOAD DUP2 PUSH1 0x1 ADD SSTORE PUSH1 0x40 DUP3 ADD MLOAD DUP2 PUSH1 0x2 ADD SSTORE PUSH1 0x60 DUP3 ADD MLOAD DUP2 PUSH1 0x3 ADD PUSH1 0x0 DUP3 ADD MLOAD DUP2 PUSH1 0x0 ADD SSTORE PUSH1 0x20 DUP3 ADD MLOAD DUP2 PUSH1 0x1 ADD SSTORE POP POP PUSH1 0x80 DUP3 ADD MLOAD DUP2 PUSH1 0x5 ADD SSTORE SWAP1 POP POP PUSH1 0x3 PUSH1 0x6 PUSH1 0x0 PUSH1 0x7 SLOAD DUP2 MSTORE PUSH1 0x20 ADD SWAP1 DUP2 MSTORE PUSH1 0x20 ADD PUSH1 0x0 KECCAK256 POP PUSH1 0x3 EQ ISZERO PUSH2 0xA03 JUMPI PUSH1 0x2 PUSH1 0x6 PUSH1 0x0 PUSH1 0x7 SLOAD DUP2 MSTORE PUSH1 0x20 ADD SWAP1 DUP2 MSTORE PUSH1 0x20 ADD PUSH1 0x0 KECCAK256 PUSH1 0x0 ADD PUSH1 0x0 PUSH2 0x100 EXP DUP2 SLOAD DUP2 PUSH1 0xFF MUL NOT AND SWAP1 DUP4 PUSH1 0x2 DUP2 GT ISZERO PUSH2 0x9FD JUMPI PUSH2 0x9FC PUSH2 0xDBC JUMP JUMPDEST JUMPDEST MUL OR SWAP1 SSTORE POP JUMPDEST PUSH1 0x7 SLOAD SWAP2 POP POP SWAP1 JUMP JUMPDEST PUSH1 0x7 SLOAD DUP2 JUMP JUMPDEST PUSH1 0x0 DUP2 CALLDATALOAD SWAP1 POP PUSH2 0xA21 DUP2 PUSH2 0xE85 JUMP JUMPDEST SWAP3 SWAP2 POP POP JUMP JUMPDEST PUSH1 0x0 PUSH1 0x20 DUP3 DUP5 SUB SLT ISZERO PUSH2 0xA3D JUMPI PUSH2 0xA3C PUSH2 0xE1A JUMP JUMPDEST JUMPDEST PUSH1 0x0 PUSH2 0xA4B DUP5 DUP3 DUP6 ADD PUSH2 0xA12 JUMP JUMPDEST SWAP2 POP POP SWAP3 SWAP2 POP POP JUMP JUMPDEST PUSH1 0x0 DUP1 PUSH1 0x0 PUSH1 0x60 DUP5 DUP7 SUB SLT ISZERO PUSH2 0xA6D JUMPI PUSH2 0xA6C PUSH2 0xE1A JUMP JUMPDEST JUMPDEST PUSH1 0x0 PUSH2 0xA7B DUP7 DUP3 DUP8 ADD PUSH2 0xA12 JUMP JUMPDEST SWAP4 POP POP PUSH1 0x20 PUSH2 0xA8C DUP7 DUP3 DUP8 ADD PUSH2 0xA12 JUMP JUMPDEST SWAP3 POP POP PUSH1 0x40 PUSH2 0xA9D DUP7 DUP3 DUP8 ADD PUSH2 0xA12 JUMP JUMPDEST SWAP2 POP POP SWAP3 POP SWAP3 POP SWAP3 JUMP JUMPDEST PUSH2 0xAB0 DUP2 PUSH2 0xD08 JUMP JUMPDEST DUP3 MSTORE POP POP JUMP JUMPDEST PUSH1 0x0 PUSH2 0xAC3 PUSH1 0x15 DUP4 PUSH2 0xBF6 JUMP JUMPDEST SWAP2 POP PUSH2 0xACE DUP3 PUSH2 0xE1F JUMP JUMPDEST PUSH1 0x20 DUP3 ADD SWAP1 POP SWAP2 SWAP1 POP JUMP JUMPDEST PUSH1 0x0 PUSH2 0xAE6 PUSH1 0x12 DUP4 PUSH2 0xBF6 JUMP JUMPDEST SWAP2 POP PUSH2 0xAF1 DUP3 PUSH2 0xE48 JUMP JUMPDEST PUSH1 0x20 DUP3 ADD SWAP1 POP SWAP2 SWAP1 POP JUMP JUMPDEST PUSH1 0x40 DUP3 ADD PUSH1 0x0 DUP3 ADD MLOAD PUSH2 0xB12 PUSH1 0x0 DUP6 ADD DUP3 PUSH2 0xB2B JUMP JUMPDEST POP PUSH1 0x20 DUP3 ADD MLOAD PUSH2 0xB25 PUSH1 0x20 DUP6 ADD DUP3 PUSH2 0xB2B JUMP JUMPDEST POP POP POP POP JUMP JUMPDEST PUSH2 0xB34 DUP2 PUSH2 0xCFE JUMP JUMPDEST DUP3 MSTORE POP POP JUMP JUMPDEST PUSH2 0xB43 DUP2 PUSH2 0xCFE JUMP JUMPDEST DUP3 MSTORE POP POP JUMP JUMPDEST PUSH1 0x0 PUSH1 0x60 DUP3 ADD SWAP1 POP PUSH2 0xB5E PUSH1 0x0 DUP4 ADD DUP6 PUSH2 0xAA7 JUMP JUMPDEST PUSH2 0xB6B PUSH1 0x20 DUP4 ADD DUP5 PUSH2 0xAFC JUMP JUMPDEST SWAP4 SWAP3 POP POP POP JUMP JUMPDEST PUSH1 0x0 PUSH1 0x20 DUP3 ADD SWAP1 POP DUP2 DUP2 SUB PUSH1 0x0 DUP4 ADD MSTORE PUSH2 0xB8B DUP2 PUSH2 0xAB6 JUMP JUMPDEST SWAP1 POP SWAP2 SWAP1 POP JUMP JUMPDEST PUSH1 0x0 PUSH1 0x20 DUP3 ADD SWAP1 POP DUP2 DUP2 SUB PUSH1 0x0 DUP4 ADD MSTORE PUSH2 0xBAB DUP2 PUSH2 0xAD9 JUMP JUMPDEST SWAP1 POP SWAP2 SWAP1 POP JUMP JUMPDEST PUSH1 0x0 PUSH1 0x20 DUP3 ADD SWAP1 POP PUSH2 0xBC7 PUSH1 0x0 DUP4 ADD DUP5 PUSH2 0xB3A JUMP JUMPDEST SWAP3 SWAP2 POP POP JUMP JUMPDEST PUSH1 0x0 PUSH1 0x40 DUP3 ADD SWAP1 POP PUSH2 0xBE2 PUSH1 0x0 DUP4 ADD DUP6 PUSH2 0xB3A JUMP JUMPDEST PUSH2 0xBEF PUSH1 0x20 DUP4 ADD DUP5 PUSH2 0xB3A JUMP JUMPDEST SWAP4 SWAP3 POP POP POP JUMP JUMPDEST PUSH1 0x0 DUP3 DUP3 MSTORE PUSH1 0x20 DUP3 ADD SWAP1 POP SWAP3 SWAP2 POP POP JUMP JUMPDEST PUSH1 0x0 PUSH2 0xC12 DUP3 PUSH2 0xCFE JUMP JUMPDEST SWAP2 POP PUSH2 0xC1D DUP4 PUSH2 0xCFE JUMP JUMPDEST SWAP3 POP DUP3 PUSH32 0xFFFFFFFFFFFFFFFFFFFFFFFFFFFFFFFFFFFFFFFFFFFFFFFFFFFFFFFFFFFFFFFF SUB DUP3 GT ISZERO PUSH2 0xC52 JUMPI PUSH2 0xC51 PUSH2 0xD8D JUMP JUMPDEST JUMPDEST DUP3 DUP3 ADD SWAP1 POP SWAP3 SWAP2 POP POP JUMP JUMPDEST PUSH1 0x0 PUSH2 0xC68 DUP3 PUSH2 0xCFE JUMP JUMPDEST SWAP2 POP PUSH2 0xC73 DUP4 PUSH2 0xCFE JUMP JUMPDEST SWAP3 POP DUP2 PUSH32 0xFFFFFFFFFFFFFFFFFFFFFFFFFFFFFFFFFFFFFFFFFFFFFFFFFFFFFFFFFFFFFFFF DIV DUP4 GT DUP3 ISZERO ISZERO AND ISZERO PUSH2 0xCAC JUMPI PUSH2 0xCAB PUSH2 0xD8D JUMP JUMPDEST JUMPDEST DUP3 DUP3 MUL SWAP1 POP SWAP3 SWAP2 POP POP JUMP JUMPDEST PUSH1 0x0 PUSH2 0xCC2 DUP3 PUSH2 0xCFE JUMP JUMPDEST SWAP2 POP PUSH2 0xCCD DUP4 PUSH2 0xCFE JUMP JUMPDEST SWAP3 POP DUP3 DUP3 LT ISZERO PUSH2 0xCE0 JUMPI PUSH2 0xCDF PUSH2 0xD8D JUMP JUMPDEST JUMPDEST DUP3 DUP3 SUB SWAP1 POP SWAP3 SWAP2 POP POP JUMP JUMPDEST PUSH1 0x0 DUP2 SWAP1 POP PUSH2 0xCF9 DUP3 PUSH2 0xE71 JUMP JUMPDEST SWAP2 SWAP1 POP JUMP JUMPDEST PUSH1 0x0 DUP2 SWAP1 POP SWAP2 SWAP1 POP JUMP JUMPDEST PUSH1 0x0 PUSH2 0xD13 DUP3 PUSH2 0xCEB JUMP JUMPDEST SWAP1 POP SWAP2 SWAP1 POP JUMP JUMPDEST PUSH1 0x0 PUSH2 0xD25 DUP3 PUSH2 0xCFE JUMP JUMPDEST SWAP2 POP PUSH1 0x0 DUP3 EQ ISZERO PUSH2 0xD39 JUMPI PUSH2 0xD38 PUSH2 0xD8D JUMP JUMPDEST JUMPDEST PUSH1 0x1 DUP3 SUB SWAP1 POP SWAP2 SWAP1 POP JUMP JUMPDEST PUSH1 0x0 PUSH2 0xD4F DUP3 PUSH2 0xCFE JUMP JUMPDEST SWAP2 POP PUSH32 0xFFFFFFFFFFFFFFFFFFFFFFFFFFFFFFFFFFFFFFFFFFFFFFFFFFFFFFFFFFFFFFFF DUP3 EQ ISZERO PUSH2 0xD82 JUMPI PUSH2 0xD81 PUSH2 0xD8D JUMP JUMPDEST JUMPDEST PUSH1 0x1 DUP3 ADD SWAP1 POP SWAP2 SWAP1 POP JUMP JUMPDEST PUSH32 0x4E487B7100000000000000000000000000000000000000000000000000000000 PUSH1 0x0 MSTORE PUSH1 0x11 PUSH1 0x4 MSTORE PUSH1 0x24 PUSH1 0x0 REVERT JUMPDEST PUSH32 0x4E487B7100000000000000000000000000000000000000000000000000000000 PUSH1 0x0 MSTORE PUSH1 0x21 PUSH1 0x4 MSTORE PUSH1 0x24 PUSH1 0x0 REVERT JUMPDEST PUSH32 0x4E487B7100000000000000000000000000000000000000000000000000000000 PUSH1 0x0 MSTORE PUSH1 0x32 PUSH1 0x4 MSTORE PUSH1 0x24 PUSH1 0x0 REVERT JUMPDEST PUSH1 0x0 DUP1 REVERT JUMPDEST PUSH32 0x76616C75652073656E74206E6F7420656E6F7567680000000000000000000000 PUSH1 0x0 DUP3 ADD MSTORE POP JUMP JUMPDEST PUSH32 0x47616D65206973206E6F74206163746976650000000000000000000000000000 PUSH1 0x0 DUP3 ADD MSTORE POP JUMP JUMPDEST PUSH1 0x3 DUP2 LT PUSH2 0xE82 JUMPI PUSH2 0xE81 PUSH2 0xDBC JUMP JUMPDEST JUMPDEST POP JUMP JUMPDEST PUSH2 0xE8E DUP2 PUSH2 0xCFE JUMP JUMPDEST DUP2 EQ PUSH2 0xE99 JUMPI PUSH1 0x0 DUP1 REVERT JUMPDEST POP JUMP INVALID LOG2 PUSH5 0x6970667358 0x22 SLT KECCAK256 0xB1 SWAP11 XOR 0xD 0xC5 RETURN SWAP8 0xD7 DUP6 PUSH13 0x4962A44A5E1132BF0548E508EA LOG3 LOG3 DUP11 0xCC 0x25 0xAE PUSH8 0xDBAE64736F6C6343 STOP ADDMOD MOD STOP CALLER "
		},
		"gasEstimates": {
			"creation": {
				"codeDepositCost": "758800",
				"executionCost": "infinite",
				"totalCost": "infinite"
			},
			"external": {
				"games(uint256)": "infinite",
				"gamesCount()": "2495",
				"movePlayer(uint256,uint256,uint256)": "infinite",
				"startGame()": "104248",
				"startingPositions(uint256)": "infinite"
			}
		},
		"methodIdentifiers": {
			"games(uint256)": "117a5b90",
			"gamesCount()": "fb632b7c",
			"movePlayer(uint256,uint256,uint256)": "0bbb5714",
			"startGame()": "d65ab5f2",
			"startingPositions(uint256)": "b4c5bf64"
		}
	},
	"abi": [
		{
			"inputs": [],
			"stateMutability": "nonpayable",
			"type": "constructor"
		},
		{
			"inputs": [
				{
					"internalType": "uint256",
					"name": "",
					"type": "uint256"
				}
			],
			"name": "games",
			"outputs": [
				{
					"internalType": "enum Gar3.GameStatus",
					"name": "status",
					"type": "uint8"
				},
				{
					"components": [
						{
							"internalType": "uint256",
							"name": "height",
							"type": "uint256"
						},
						{
							"internalType": "uint256",
							"name": "width",
							"type": "uint256"
						}
					],
					"internalType": "struct Gar3.PlayingGrid",
					"name": "grid",
					"type": "tuple"
				}
			],
			"stateMutability": "view",
			"type": "function"
		},
		{
			"inputs": [],
			"name": "gamesCount",
			"outputs": [
				{
					"internalType": "uint256",
					"name": "",
					"type": "uint256"
				}
			],
			"stateMutability": "view",
			"type": "function"
		},
		{
			"inputs": [
				{
					"internalType": "uint256",
					"name": "gameId",
					"type": "uint256"
				},
				{
					"internalType": "uint256",
					"name": "direction_height",
					"type": "uint256"
				},
				{
					"internalType": "uint256",
					"name": "direction_width",
					"type": "uint256"
				}
			],
			"name": "movePlayer",
			"outputs": [],
			"stateMutability": "nonpayable",
			"type": "function"
		},
		{
			"inputs": [],
			"name": "startGame",
			"outputs": [
				{
					"internalType": "uint256",
					"name": "",
					"type": "uint256"
				}
			],
			"stateMutability": "payable",
			"type": "function"
		},
		{
			"inputs": [
				{
					"internalType": "uint256",
					"name": "",
					"type": "uint256"
				}
			],
			"name": "startingPositions",
			"outputs": [
				{
					"internalType": "uint256",
					"name": "height",
					"type": "uint256"
				},
				{
					"internalType": "uint256",
					"name": "width",
					"type": "uint256"
				}
			],
			"stateMutability": "view",
			"type": "function"
		}
	]
}